{
	"contracts/StakeUnstake.sol": {
		"StakeUnstake": {
			"abi": [
				{
					"inputs": [
						{
							"internalType": "contract RaghavendraToken",
							"name": "_raghavendraToken",
							"type": "address"
						},
						{
							"internalType": "contract RewardRToken",
							"name": "_rewardToken",
							"type": "address"
						}
					],
					"stateMutability": "nonpayable",
					"type": "constructor"
				},
				{
					"inputs": [
						{
							"internalType": "address",
							"name": "",
							"type": "address"
						}
					],
					"name": "hasStaked",
					"outputs": [
						{
							"internalType": "bool",
							"name": "",
							"type": "bool"
						}
					],
					"stateMutability": "view",
					"type": "function"
				},
				{
					"inputs": [
						{
							"internalType": "address",
							"name": "",
							"type": "address"
						}
					],
					"name": "isStaking",
					"outputs": [
						{
							"internalType": "bool",
							"name": "",
							"type": "bool"
						}
					],
					"stateMutability": "view",
					"type": "function"
				},
				{
					"inputs": [],
					"name": "issueTokens",
					"outputs": [],
					"stateMutability": "nonpayable",
					"type": "function"
				},
				{
					"inputs": [],
					"name": "name",
					"outputs": [
						{
							"internalType": "string",
							"name": "",
							"type": "string"
						}
					],
					"stateMutability": "view",
					"type": "function"
				},
				{
					"inputs": [],
					"name": "owner",
					"outputs": [
						{
							"internalType": "address",
							"name": "",
							"type": "address"
						}
					],
					"stateMutability": "view",
					"type": "function"
				},
				{
					"inputs": [],
					"name": "raghavendraToken",
					"outputs": [
						{
							"internalType": "contract RaghavendraToken",
							"name": "",
							"type": "address"
						}
					],
					"stateMutability": "view",
					"type": "function"
				},
				{
					"inputs": [],
					"name": "rewardToken",
					"outputs": [
						{
							"internalType": "contract RewardRToken",
							"name": "",
							"type": "address"
						}
					],
					"stateMutability": "view",
					"type": "function"
				},
				{
					"inputs": [
						{
							"internalType": "uint256",
							"name": "_amount",
							"type": "uint256"
						}
					],
					"name": "stakeTokens",
					"outputs": [],
					"stateMutability": "nonpayable",
					"type": "function"
				},
				{
					"inputs": [
						{
							"internalType": "uint256",
							"name": "",
							"type": "uint256"
						}
					],
					"name": "stakers",
					"outputs": [
						{
							"internalType": "address",
							"name": "",
							"type": "address"
						}
					],
					"stateMutability": "view",
					"type": "function"
				},
				{
					"inputs": [
						{
							"internalType": "address",
							"name": "",
							"type": "address"
						}
					],
					"name": "stakingBalance",
					"outputs": [
						{
							"internalType": "uint256",
							"name": "",
							"type": "uint256"
						}
					],
					"stateMutability": "view",
					"type": "function"
				},
				{
					"inputs": [],
					"name": "unstakeTokens",
					"outputs": [],
					"stateMutability": "nonpayable",
					"type": "function"
				}
			],
			"devdoc": {
				"kind": "dev",
				"methods": {},
				"version": 1
			},
			"evm": {
				"assembly": "    /* \"contracts/StakeUnstake.sol\":131:2366  contract StakeUnstake {... */\n  mstore(0x40, 0x80)\n    /* \"contracts/StakeUnstake.sol\":159:197  string public name = \"Dapp Token Farm\" */\n  mload(0x40)\n  dup1\n  0x40\n  add\n  0x40\n  mstore\n  dup1\n  0x0f\n  dup2\n  mstore\n  0x20\n  add\n  0x4461707020546f6b656e204661726d0000000000000000000000000000000000\n  dup2\n  mstore\n  pop\n  0x00\n  swap1\n  dup1\n  mload\n  swap1\n  0x20\n  add\n  swap1\n  tag_1\n  swap3\n  swap2\n  swap1\n  tag_2\n  jump\t// in\ntag_1:\n  pop\n    /* \"contracts/StakeUnstake.sol\":490:689  constructor(RaghavendraToken _raghavendraToken, RewardRToken _rewardToken) public {... */\n  callvalue\n  dup1\n  iszero\n  tag_3\n  jumpi\n  0x00\n  dup1\n  revert\ntag_3:\n  pop\n  mload(0x40)\n  sub(codesize, bytecodeSize)\n  dup1\n  bytecodeSize\n  dup4\n  codecopy\n  dup2\n  dup2\n  add\n  0x40\n  mstore\n  dup2\n  add\n  swap1\n  tag_4\n  swap2\n  swap1\n  tag_5\n  jump\t// in\ntag_4:\n    /* \"contracts/StakeUnstake.sol\":601:618  _raghavendraToken */\n  dup2\n    /* \"contracts/StakeUnstake.sol\":582:598  raghavendraToken */\n  0x02\n  0x00\n    /* \"contracts/StakeUnstake.sol\":582:618  raghavendraToken = _raghavendraToken */\n  0x0100\n  exp\n  dup2\n  sload\n  dup2\n  0xffffffffffffffffffffffffffffffffffffffff\n  mul\n  not\n  and\n  swap1\n  dup4\n  0xffffffffffffffffffffffffffffffffffffffff\n  and\n  mul\n  or\n  swap1\n  sstore\n  pop\n    /* \"contracts/StakeUnstake.sol\":642:654  _rewardToken */\n  dup1\n    /* \"contracts/StakeUnstake.sol\":628:639  rewardToken */\n  0x03\n  0x00\n    /* \"contracts/StakeUnstake.sol\":628:654  rewardToken = _rewardToken */\n  0x0100\n  exp\n  dup2\n  sload\n  dup2\n  0xffffffffffffffffffffffffffffffffffffffff\n  mul\n  not\n  and\n  swap1\n  dup4\n  0xffffffffffffffffffffffffffffffffffffffff\n  and\n  mul\n  or\n  swap1\n  sstore\n  pop\n    /* \"contracts/StakeUnstake.sol\":672:682  msg.sender */\n  caller\n    /* \"contracts/StakeUnstake.sol\":664:669  owner */\n  0x01\n  0x00\n    /* \"contracts/StakeUnstake.sol\":664:682  owner = msg.sender */\n  0x0100\n  exp\n  dup2\n  sload\n  dup2\n  0xffffffffffffffffffffffffffffffffffffffff\n  mul\n  not\n  and\n  swap1\n  dup4\n  0xffffffffffffffffffffffffffffffffffffffff\n  and\n  mul\n  or\n  swap1\n  sstore\n  pop\n    /* \"contracts/StakeUnstake.sol\":490:689  constructor(RaghavendraToken _raghavendraToken, RewardRToken _rewardToken) public {... */\n  pop\n  pop\n    /* \"contracts/StakeUnstake.sol\":131:2366  contract StakeUnstake {... */\n  jump(tag_8)\ntag_2:\n  dup3\n  dup1\n  sload\n  tag_9\n  swap1\n  tag_10\n  jump\t// in\ntag_9:\n  swap1\n  0x00\n  mstore\n  keccak256(0x00, 0x20)\n  swap1\n  0x1f\n  add\n  0x20\n  swap1\n  div\n  dup2\n  add\n  swap3\n  dup3\n  tag_12\n  jumpi\n  0x00\n  dup6\n  sstore\n  jump(tag_11)\ntag_12:\n  dup3\n  0x1f\n  lt\n  tag_13\n  jumpi\n  dup1\n  mload\n  not(0xff)\n  and\n  dup4\n  dup1\n  add\n  or\n  dup6\n  sstore\n  jump(tag_11)\ntag_13:\n  dup3\n  dup1\n  add\n  0x01\n  add\n  dup6\n  sstore\n  dup3\n  iszero\n  tag_11\n  jumpi\n  swap2\n  dup3\n  add\ntag_14:\n  dup3\n  dup2\n  gt\n  iszero\n  tag_15\n  jumpi\n  dup3\n  mload\n  dup3\n  sstore\n  swap2\n  0x20\n  add\n  swap2\n  swap1\n  0x01\n  add\n  swap1\n  jump(tag_14)\ntag_15:\ntag_11:\n  pop\n  swap1\n  pop\n  tag_16\n  swap2\n  swap1\n  tag_17\n  jump\t// in\ntag_16:\n  pop\n  swap1\n  jump\t// out\ntag_17:\ntag_18:\n  dup1\n  dup3\n  gt\n  iszero\n  tag_19\n  jumpi\n  0x00\n  dup2\n  0x00\n  swap1\n  sstore\n  pop\n  0x01\n  add\n  jump(tag_18)\ntag_19:\n  pop\n  swap1\n  jump\t// out\n    /* \"#utility.yul\":88:205   */\ntag_21:\n    /* \"#utility.yul\":197:198   */\n  0x00\n    /* \"#utility.yul\":194:195   */\n  dup1\n    /* \"#utility.yul\":187:199   */\n  revert\n    /* \"#utility.yul\":334:460   */\ntag_23:\n    /* \"#utility.yul\":371:378   */\n  0x00\n    /* \"#utility.yul\":411:453   */\n  0xffffffffffffffffffffffffffffffffffffffff\n    /* \"#utility.yul\":404:409   */\n  dup3\n    /* \"#utility.yul\":400:454   */\n  and\n    /* \"#utility.yul\":389:454   */\n  swap1\n  pop\n    /* \"#utility.yul\":334:460   */\n  swap2\n  swap1\n  pop\n  jump\t// out\n    /* \"#utility.yul\":466:562   */\ntag_24:\n    /* \"#utility.yul\":503:510   */\n  0x00\n    /* \"#utility.yul\":532:556   */\n  tag_38\n    /* \"#utility.yul\":550:555   */\n  dup3\n    /* \"#utility.yul\":532:556   */\n  tag_23\n  jump\t// in\ntag_38:\n    /* \"#utility.yul\":521:556   */\n  swap1\n  pop\n    /* \"#utility.yul\":466:562   */\n  swap2\n  swap1\n  pop\n  jump\t// out\n    /* \"#utility.yul\":568:688   */\ntag_25:\n    /* \"#utility.yul\":629:636   */\n  0x00\n    /* \"#utility.yul\":658:682   */\n  tag_40\n    /* \"#utility.yul\":676:681   */\n  dup3\n    /* \"#utility.yul\":658:682   */\n  tag_24\n  jump\t// in\ntag_40:\n    /* \"#utility.yul\":647:682   */\n  swap1\n  pop\n    /* \"#utility.yul\":568:688   */\n  swap2\n  swap1\n  pop\n  jump\t// out\n    /* \"#utility.yul\":694:864   */\ntag_26:\n    /* \"#utility.yul\":791:839   */\n  tag_42\n    /* \"#utility.yul\":833:838   */\n  dup2\n    /* \"#utility.yul\":791:839   */\n  tag_25\n  jump\t// in\ntag_42:\n    /* \"#utility.yul\":784:789   */\n  dup2\n    /* \"#utility.yul\":781:840   */\n  eq\n    /* \"#utility.yul\":771:858   */\n  tag_43\n  jumpi\n    /* \"#utility.yul\":854:855   */\n  0x00\n    /* \"#utility.yul\":851:852   */\n  dup1\n    /* \"#utility.yul\":844:856   */\n  revert\n    /* \"#utility.yul\":771:858   */\ntag_43:\n    /* \"#utility.yul\":694:864   */\n  pop\n  jump\t// out\n    /* \"#utility.yul\":870:1061   */\ntag_27:\n    /* \"#utility.yul\":951:956   */\n  0x00\n    /* \"#utility.yul\":982:988   */\n  dup2\n    /* \"#utility.yul\":976:989   */\n  mload\n    /* \"#utility.yul\":967:989   */\n  swap1\n  pop\n    /* \"#utility.yul\":998:1055   */\n  tag_45\n    /* \"#utility.yul\":1049:1054   */\n  dup2\n    /* \"#utility.yul\":998:1055   */\n  tag_26\n  jump\t// in\ntag_45:\n    /* \"#utility.yul\":870:1061   */\n  swap3\n  swap2\n  pop\n  pop\n  jump\t// out\n    /* \"#utility.yul\":1067:1183   */\ntag_28:\n    /* \"#utility.yul\":1124:1131   */\n  0x00\n    /* \"#utility.yul\":1153:1177   */\n  tag_47\n    /* \"#utility.yul\":1171:1176   */\n  dup3\n    /* \"#utility.yul\":1153:1177   */\n  tag_24\n  jump\t// in\ntag_47:\n    /* \"#utility.yul\":1142:1177   */\n  swap1\n  pop\n    /* \"#utility.yul\":1067:1183   */\n  swap2\n  swap1\n  pop\n  jump\t// out\n    /* \"#utility.yul\":1189:1351   */\ntag_29:\n    /* \"#utility.yul\":1282:1326   */\n  tag_49\n    /* \"#utility.yul\":1320:1325   */\n  dup2\n    /* \"#utility.yul\":1282:1326   */\n  tag_28\n  jump\t// in\ntag_49:\n    /* \"#utility.yul\":1275:1280   */\n  dup2\n    /* \"#utility.yul\":1272:1327   */\n  eq\n    /* \"#utility.yul\":1262:1345   */\n  tag_50\n  jumpi\n    /* \"#utility.yul\":1341:1342   */\n  0x00\n    /* \"#utility.yul\":1338:1339   */\n  dup1\n    /* \"#utility.yul\":1331:1343   */\n  revert\n    /* \"#utility.yul\":1262:1345   */\ntag_50:\n    /* \"#utility.yul\":1189:1351   */\n  pop\n  jump\t// out\n    /* \"#utility.yul\":1357:1540   */\ntag_30:\n    /* \"#utility.yul\":1434:1439   */\n  0x00\n    /* \"#utility.yul\":1465:1471   */\n  dup2\n    /* \"#utility.yul\":1459:1472   */\n  mload\n    /* \"#utility.yul\":1450:1472   */\n  swap1\n  pop\n    /* \"#utility.yul\":1481:1534   */\n  tag_52\n    /* \"#utility.yul\":1528:1533   */\n  dup2\n    /* \"#utility.yul\":1481:1534   */\n  tag_29\n  jump\t// in\ntag_52:\n    /* \"#utility.yul\":1357:1540   */\n  swap3\n  swap2\n  pop\n  pop\n  jump\t// out\n    /* \"#utility.yul\":1546:2141   */\ntag_5:\n    /* \"#utility.yul\":1669:1675   */\n  0x00\n    /* \"#utility.yul\":1677:1683   */\n  dup1\n    /* \"#utility.yul\":1726:1728   */\n  0x40\n    /* \"#utility.yul\":1714:1723   */\n  dup4\n    /* \"#utility.yul\":1705:1712   */\n  dup6\n    /* \"#utility.yul\":1701:1724   */\n  sub\n    /* \"#utility.yul\":1697:1729   */\n  slt\n    /* \"#utility.yul\":1694:1813   */\n  iszero\n  tag_54\n  jumpi\n    /* \"#utility.yul\":1732:1811   */\n  tag_55\n  tag_21\n  jump\t// in\ntag_55:\n    /* \"#utility.yul\":1694:1813   */\ntag_54:\n    /* \"#utility.yul\":1852:1853   */\n  0x00\n    /* \"#utility.yul\":1877:1965   */\n  tag_56\n    /* \"#utility.yul\":1957:1964   */\n  dup6\n    /* \"#utility.yul\":1948:1954   */\n  dup3\n    /* \"#utility.yul\":1937:1946   */\n  dup7\n    /* \"#utility.yul\":1933:1955   */\n  add\n    /* \"#utility.yul\":1877:1965   */\n  tag_27\n  jump\t// in\ntag_56:\n    /* \"#utility.yul\":1867:1965   */\n  swap3\n  pop\n    /* \"#utility.yul\":1823:1975   */\n  pop\n    /* \"#utility.yul\":2014:2016   */\n  0x20\n    /* \"#utility.yul\":2040:2124   */\n  tag_57\n    /* \"#utility.yul\":2116:2123   */\n  dup6\n    /* \"#utility.yul\":2107:2113   */\n  dup3\n    /* \"#utility.yul\":2096:2105   */\n  dup7\n    /* \"#utility.yul\":2092:2114   */\n  add\n    /* \"#utility.yul\":2040:2124   */\n  tag_30\n  jump\t// in\ntag_57:\n    /* \"#utility.yul\":2030:2124   */\n  swap2\n  pop\n    /* \"#utility.yul\":1985:2134   */\n  pop\n    /* \"#utility.yul\":1546:2141   */\n  swap3\n  pop\n  swap3\n  swap1\n  pop\n  jump\t// out\n    /* \"#utility.yul\":2147:2327   */\ntag_31:\n    /* \"#utility.yul\":2195:2272   */\n  0x4e487b7100000000000000000000000000000000000000000000000000000000\n    /* \"#utility.yul\":2192:2193   */\n  0x00\n    /* \"#utility.yul\":2185:2273   */\n  mstore\n    /* \"#utility.yul\":2292:2296   */\n  0x22\n    /* \"#utility.yul\":2289:2290   */\n  0x04\n    /* \"#utility.yul\":2282:2297   */\n  mstore\n    /* \"#utility.yul\":2316:2320   */\n  0x24\n    /* \"#utility.yul\":2313:2314   */\n  0x00\n    /* \"#utility.yul\":2306:2321   */\n  revert\n    /* \"#utility.yul\":2333:2653   */\ntag_10:\n    /* \"#utility.yul\":2377:2383   */\n  0x00\n    /* \"#utility.yul\":2414:2415   */\n  0x02\n    /* \"#utility.yul\":2408:2412   */\n  dup3\n    /* \"#utility.yul\":2404:2416   */\n  div\n    /* \"#utility.yul\":2394:2416   */\n  swap1\n  pop\n    /* \"#utility.yul\":2461:2462   */\n  0x01\n    /* \"#utility.yul\":2455:2459   */\n  dup3\n    /* \"#utility.yul\":2451:2463   */\n  and\n    /* \"#utility.yul\":2482:2500   */\n  dup1\n    /* \"#utility.yul\":2472:2553   */\n  tag_60\n  jumpi\n    /* \"#utility.yul\":2538:2542   */\n  0x7f\n    /* \"#utility.yul\":2530:2536   */\n  dup3\n    /* \"#utility.yul\":2526:2543   */\n  and\n    /* \"#utility.yul\":2516:2543   */\n  swap2\n  pop\n    /* \"#utility.yul\":2472:2553   */\ntag_60:\n    /* \"#utility.yul\":2600:2602   */\n  0x20\n    /* \"#utility.yul\":2592:2598   */\n  dup3\n    /* \"#utility.yul\":2589:2603   */\n  lt\n    /* \"#utility.yul\":2569:2587   */\n  dup2\n    /* \"#utility.yul\":2566:2604   */\n  eq\n    /* \"#utility.yul\":2563:2647   */\n  iszero\n  tag_61\n  jumpi\n    /* \"#utility.yul\":2619:2637   */\n  tag_62\n  tag_31\n  jump\t// in\ntag_62:\n    /* \"#utility.yul\":2563:2647   */\ntag_61:\n    /* \"#utility.yul\":2384:2653   */\n  pop\n    /* \"#utility.yul\":2333:2653   */\n  swap2\n  swap1\n  pop\n  jump\t// out\n    /* \"contracts/StakeUnstake.sol\":131:2366  contract StakeUnstake {... */\ntag_8:\n  dataSize(sub_0)\n  dup1\n  dataOffset(sub_0)\n  0x00\n  codecopy\n  0x00\n  return\nstop\n\nsub_0: assembly {\n        /* \"contracts/StakeUnstake.sol\":131:2366  contract StakeUnstake {... */\n      mstore(0x40, 0x80)\n      callvalue\n      dup1\n      iszero\n      tag_1\n      jumpi\n      0x00\n      dup1\n      revert\n    tag_1:\n      pop\n      jumpi(tag_2, lt(calldatasize, 0x04))\n      shr(0xe0, calldataload(0x00))\n      dup1\n      0x7547c7a3\n      gt\n      tag_14\n      jumpi\n      dup1\n      0x7547c7a3\n      eq\n      tag_8\n      jumpi\n      dup1\n      0x8da5cb5b\n      eq\n      tag_9\n      jumpi\n      dup1\n      0xa5ce413b\n      eq\n      tag_10\n      jumpi\n      dup1\n      0xc93c8f34\n      eq\n      tag_11\n      jumpi\n      dup1\n      0xf7c618c1\n      eq\n      tag_12\n      jumpi\n      dup1\n      0xfd5e6dd1\n      eq\n      tag_13\n      jumpi\n      jump(tag_2)\n    tag_14:\n      dup1\n      0x06fdde03\n      eq\n      tag_3\n      jumpi\n      dup1\n      0x1ea3626a\n      eq\n      tag_4\n      jumpi\n      dup1\n      0x45bc78ab\n      eq\n      tag_5\n      jumpi\n      dup1\n      0x60ab5852\n      eq\n      tag_6\n      jumpi\n      dup1\n      0x6f49712b\n      eq\n      tag_7\n      jumpi\n    tag_2:\n      0x00\n      dup1\n      revert\n        /* \"contracts/StakeUnstake.sol\":159:197  string public name = \"Dapp Token Farm\" */\n    tag_3:\n      tag_15\n      tag_16\n      jump\t// in\n    tag_15:\n      mload(0x40)\n      tag_17\n      swap2\n      swap1\n      tag_18\n      jump\t// in\n    tag_17:\n      mload(0x40)\n      dup1\n      swap2\n      sub\n      swap1\n      return\n        /* \"contracts/StakeUnstake.sol\":229:269  RaghavendraToken public raghavendraToken */\n    tag_4:\n      tag_19\n      tag_20\n      jump\t// in\n    tag_19:\n      mload(0x40)\n      tag_21\n      swap2\n      swap1\n      tag_22\n      jump\t// in\n    tag_21:\n      mload(0x40)\n      dup1\n      swap2\n      sub\n      swap1\n      return\n        /* \"contracts/StakeUnstake.sol\":343:389  mapping(address => uint) public stakingBalance */\n    tag_5:\n      tag_23\n      0x04\n      dup1\n      calldatasize\n      sub\n      dup2\n      add\n      swap1\n      tag_24\n      swap2\n      swap1\n      tag_25\n      jump\t// in\n    tag_24:\n      tag_26\n      jump\t// in\n    tag_23:\n      mload(0x40)\n      tag_27\n      swap2\n      swap1\n      tag_28\n      jump\t// in\n    tag_27:\n      mload(0x40)\n      dup1\n      swap2\n      sub\n      swap1\n      return\n        /* \"contracts/StakeUnstake.sol\":1913:2364  function issueTokens() public {... */\n    tag_6:\n      tag_29\n      tag_30\n      jump\t// in\n    tag_29:\n      stop\n        /* \"contracts/StakeUnstake.sol\":442:483  mapping(address => bool) public isStaking */\n    tag_7:\n      tag_31\n      0x04\n      dup1\n      calldatasize\n      sub\n      dup2\n      add\n      swap1\n      tag_32\n      swap2\n      swap1\n      tag_25\n      jump\t// in\n    tag_32:\n      tag_33\n      jump\t// in\n    tag_31:\n      mload(0x40)\n      tag_34\n      swap2\n      swap1\n      tag_35\n      jump\t// in\n    tag_34:\n      mload(0x40)\n      dup1\n      swap2\n      sub\n      swap1\n      return\n        /* \"contracts/StakeUnstake.sol\":695:1354  function stakeTokens(uint _amount) public {... */\n    tag_8:\n      tag_36\n      0x04\n      dup1\n      calldatasize\n      sub\n      dup2\n      add\n      swap1\n      tag_37\n      swap2\n      swap1\n      tag_38\n      jump\t// in\n    tag_37:\n      tag_39\n      jump\t// in\n    tag_36:\n      stop\n        /* \"contracts/StakeUnstake.sol\":203:223  address public owner */\n    tag_9:\n      tag_40\n      tag_41\n      jump\t// in\n    tag_40:\n      mload(0x40)\n      tag_42\n      swap2\n      swap1\n      tag_43\n      jump\t// in\n    tag_42:\n      mload(0x40)\n      dup1\n      swap2\n      sub\n      swap1\n      return\n        /* \"contracts/StakeUnstake.sol\":1395:1885  function unstakeTokens() public {... */\n    tag_10:\n      tag_44\n      tag_45\n      jump\t// in\n    tag_44:\n      stop\n        /* \"contracts/StakeUnstake.sol\":395:436  mapping(address => bool) public hasStaked */\n    tag_11:\n      tag_46\n      0x04\n      dup1\n      calldatasize\n      sub\n      dup2\n      add\n      swap1\n      tag_47\n      swap2\n      swap1\n      tag_25\n      jump\t// in\n    tag_47:\n      tag_48\n      jump\t// in\n    tag_46:\n      mload(0x40)\n      tag_49\n      swap2\n      swap1\n      tag_35\n      jump\t// in\n    tag_49:\n      mload(0x40)\n      dup1\n      swap2\n      sub\n      swap1\n      return\n        /* \"contracts/StakeUnstake.sol\":275:306  RewardRToken public rewardToken */\n    tag_12:\n      tag_50\n      tag_51\n      jump\t// in\n    tag_50:\n      mload(0x40)\n      tag_52\n      swap2\n      swap1\n      tag_53\n      jump\t// in\n    tag_52:\n      mload(0x40)\n      dup1\n      swap2\n      sub\n      swap1\n      return\n        /* \"contracts/StakeUnstake.sol\":313:337  address[] public stakers */\n    tag_13:\n      tag_54\n      0x04\n      dup1\n      calldatasize\n      sub\n      dup2\n      add\n      swap1\n      tag_55\n      swap2\n      swap1\n      tag_38\n      jump\t// in\n    tag_55:\n      tag_56\n      jump\t// in\n    tag_54:\n      mload(0x40)\n      tag_57\n      swap2\n      swap1\n      tag_43\n      jump\t// in\n    tag_57:\n      mload(0x40)\n      dup1\n      swap2\n      sub\n      swap1\n      return\n        /* \"contracts/StakeUnstake.sol\":159:197  string public name = \"Dapp Token Farm\" */\n    tag_16:\n      0x00\n      dup1\n      sload\n      tag_58\n      swap1\n      tag_59\n      jump\t// in\n    tag_58:\n      dup1\n      0x1f\n      add\n      0x20\n      dup1\n      swap2\n      div\n      mul\n      0x20\n      add\n      mload(0x40)\n      swap1\n      dup2\n      add\n      0x40\n      mstore\n      dup1\n      swap3\n      swap2\n      swap1\n      dup2\n      dup2\n      mstore\n      0x20\n      add\n      dup3\n      dup1\n      sload\n      tag_60\n      swap1\n      tag_59\n      jump\t// in\n    tag_60:\n      dup1\n      iszero\n      tag_61\n      jumpi\n      dup1\n      0x1f\n      lt\n      tag_62\n      jumpi\n      0x0100\n      dup1\n      dup4\n      sload\n      div\n      mul\n      dup4\n      mstore\n      swap2\n      0x20\n      add\n      swap2\n      jump(tag_61)\n    tag_62:\n      dup3\n      add\n      swap2\n      swap1\n      0x00\n      mstore\n      keccak256(0x00, 0x20)\n      swap1\n    tag_63:\n      dup2\n      sload\n      dup2\n      mstore\n      swap1\n      0x01\n      add\n      swap1\n      0x20\n      add\n      dup1\n      dup4\n      gt\n      tag_63\n      jumpi\n      dup3\n      swap1\n      sub\n      0x1f\n      and\n      dup3\n      add\n      swap2\n    tag_61:\n      pop\n      pop\n      pop\n      pop\n      pop\n      dup2\n      jump\t// out\n        /* \"contracts/StakeUnstake.sol\":229:269  RaghavendraToken public raghavendraToken */\n    tag_20:\n      0x02\n      0x00\n      swap1\n      sload\n      swap1\n      0x0100\n      exp\n      swap1\n      div\n      0xffffffffffffffffffffffffffffffffffffffff\n      and\n      dup2\n      jump\t// out\n        /* \"contracts/StakeUnstake.sol\":343:389  mapping(address => uint) public stakingBalance */\n    tag_26:\n      mstore(0x20, 0x05)\n      dup1\n      0x00\n      mstore\n      keccak256(0x00, 0x40)\n      0x00\n      swap2\n      pop\n      swap1\n      pop\n      sload\n      dup2\n      jump\t// out\n        /* \"contracts/StakeUnstake.sol\":1913:2364  function issueTokens() public {... */\n    tag_30:\n        /* \"contracts/StakeUnstake.sol\":2020:2025  owner */\n      0x01\n      0x00\n      swap1\n      sload\n      swap1\n      0x0100\n      exp\n      swap1\n      div\n      0xffffffffffffffffffffffffffffffffffffffff\n      and\n        /* \"contracts/StakeUnstake.sol\":2006:2025  msg.sender == owner */\n      0xffffffffffffffffffffffffffffffffffffffff\n      and\n        /* \"contracts/StakeUnstake.sol\":2006:2016  msg.sender */\n      caller\n        /* \"contracts/StakeUnstake.sol\":2006:2025  msg.sender == owner */\n      0xffffffffffffffffffffffffffffffffffffffff\n      and\n      eq\n        /* \"contracts/StakeUnstake.sol\":1998:2054  require(msg.sender == owner, \"caller must be the owner\") */\n      tag_65\n      jumpi\n      mload(0x40)\n      0x08c379a000000000000000000000000000000000000000000000000000000000\n      dup2\n      mstore\n      0x04\n      add\n      tag_66\n      swap1\n      tag_67\n      jump\t// in\n    tag_66:\n      mload(0x40)\n      dup1\n      swap2\n      sub\n      swap1\n      revert\n    tag_65:\n        /* \"contracts/StakeUnstake.sol\":2109:2115  uint i */\n      0x00\n        /* \"contracts/StakeUnstake.sol\":2104:2358  for (uint i=0; i<stakers.length; i++) {... */\n    tag_68:\n        /* \"contracts/StakeUnstake.sol\":2121:2128  stakers */\n      0x04\n        /* \"contracts/StakeUnstake.sol\":2121:2135  stakers.length */\n      dup1\n      sload\n      swap1\n      pop\n        /* \"contracts/StakeUnstake.sol\":2119:2120  i */\n      dup2\n        /* \"contracts/StakeUnstake.sol\":2119:2135  i<stakers.length */\n      lt\n        /* \"contracts/StakeUnstake.sol\":2104:2358  for (uint i=0; i<stakers.length; i++) {... */\n      iszero\n      tag_69\n      jumpi\n        /* \"contracts/StakeUnstake.sol\":2156:2173  address recipient */\n      0x00\n        /* \"contracts/StakeUnstake.sol\":2176:2183  stakers */\n      0x04\n        /* \"contracts/StakeUnstake.sol\":2184:2185  i */\n      dup3\n        /* \"contracts/StakeUnstake.sol\":2176:2186  stakers[i] */\n      dup2\n      sload\n      dup2\n      lt\n      tag_71\n      jumpi\n      tag_72\n      tag_73\n      jump\t// in\n    tag_72:\n    tag_71:\n      swap1\n      0x00\n      mstore\n      keccak256(0x00, 0x20)\n      add\n      0x00\n      swap1\n      sload\n      swap1\n      0x0100\n      exp\n      swap1\n      div\n      0xffffffffffffffffffffffffffffffffffffffff\n      and\n        /* \"contracts/StakeUnstake.sol\":2156:2186  address recipient = stakers[i] */\n      swap1\n      pop\n        /* \"contracts/StakeUnstake.sol\":2200:2212  uint balance */\n      0x00\n        /* \"contracts/StakeUnstake.sol\":2215:2229  stakingBalance */\n      0x05\n        /* \"contracts/StakeUnstake.sol\":2215:2240  stakingBalance[recipient] */\n      0x00\n        /* \"contracts/StakeUnstake.sol\":2230:2239  recipient */\n      dup4\n        /* \"contracts/StakeUnstake.sol\":2215:2240  stakingBalance[recipient] */\n      0xffffffffffffffffffffffffffffffffffffffff\n      and\n      0xffffffffffffffffffffffffffffffffffffffff\n      and\n      dup2\n      mstore\n      0x20\n      add\n      swap1\n      dup2\n      mstore\n      0x20\n      add\n      0x00\n      keccak256\n      sload\n        /* \"contracts/StakeUnstake.sol\":2200:2240  uint balance = stakingBalance[recipient] */\n      swap1\n      pop\n        /* \"contracts/StakeUnstake.sol\":2267:2268  0 */\n      0x00\n        /* \"contracts/StakeUnstake.sol\":2257:2264  balance */\n      dup2\n        /* \"contracts/StakeUnstake.sol\":2257:2268  balance > 0 */\n      gt\n        /* \"contracts/StakeUnstake.sol\":2254:2348  if(balance > 0) {... */\n      iszero\n      tag_75\n      jumpi\n        /* \"contracts/StakeUnstake.sol\":2288:2304  raghavendraToken */\n      0x02\n      0x00\n      swap1\n      sload\n      swap1\n      0x0100\n      exp\n      swap1\n      div\n      0xffffffffffffffffffffffffffffffffffffffff\n      and\n        /* \"contracts/StakeUnstake.sol\":2288:2313  raghavendraToken.transfer */\n      0xffffffffffffffffffffffffffffffffffffffff\n      and\n      0xa9059cbb\n        /* \"contracts/StakeUnstake.sol\":2314:2323  recipient */\n      dup4\n        /* \"contracts/StakeUnstake.sol\":2325:2332  balance */\n      dup4\n        /* \"contracts/StakeUnstake.sol\":2288:2333  raghavendraToken.transfer(recipient, balance) */\n      mload(0x40)\n      dup4\n      0xffffffff\n      and\n      0xe0\n      shl\n      dup2\n      mstore\n      0x04\n      add\n      tag_76\n      swap3\n      swap2\n      swap1\n      tag_77\n      jump\t// in\n    tag_76:\n      0x20\n      mload(0x40)\n      dup1\n      dup4\n      sub\n      dup2\n      0x00\n      dup8\n      gas\n      call\n      iszero\n      dup1\n      iszero\n      tag_79\n      jumpi\n      returndatasize\n      0x00\n      dup1\n      returndatacopy\n      revert(0x00, returndatasize)\n    tag_79:\n      pop\n      pop\n      pop\n      pop\n      mload(0x40)\n      returndatasize\n      not(0x1f)\n      0x1f\n      dup3\n      add\n      and\n      dup3\n      add\n      dup1\n      0x40\n      mstore\n      pop\n      dup2\n      add\n      swap1\n      tag_80\n      swap2\n      swap1\n      tag_81\n      jump\t// in\n    tag_80:\n      pop\n        /* \"contracts/StakeUnstake.sol\":2254:2348  if(balance > 0) {... */\n    tag_75:\n        /* \"contracts/StakeUnstake.sol\":2142:2358  {... */\n      pop\n      pop\n        /* \"contracts/StakeUnstake.sol\":2137:2140  i++ */\n      dup1\n      dup1\n      tag_82\n      swap1\n      tag_83\n      jump\t// in\n    tag_82:\n      swap2\n      pop\n      pop\n        /* \"contracts/StakeUnstake.sol\":2104:2358  for (uint i=0; i<stakers.length; i++) {... */\n      jump(tag_68)\n    tag_69:\n      pop\n        /* \"contracts/StakeUnstake.sol\":1913:2364  function issueTokens() public {... */\n      jump\t// out\n        /* \"contracts/StakeUnstake.sol\":442:483  mapping(address => bool) public isStaking */\n    tag_33:\n      mstore(0x20, 0x07)\n      dup1\n      0x00\n      mstore\n      keccak256(0x00, 0x40)\n      0x00\n      swap2\n      pop\n      sload\n      swap1\n      0x0100\n      exp\n      swap1\n      div\n      0xff\n      and\n      dup2\n      jump\t// out\n        /* \"contracts/StakeUnstake.sol\":695:1354  function stakeTokens(uint _amount) public {... */\n    tag_39:\n        /* \"contracts/StakeUnstake.sol\":806:807  0 */\n      0x00\n        /* \"contracts/StakeUnstake.sol\":796:803  _amount */\n      dup2\n        /* \"contracts/StakeUnstake.sol\":796:807  _amount > 0 */\n      gt\n        /* \"contracts/StakeUnstake.sol\":788:830  require(_amount > 0, \"amount cannot be 0\") */\n      tag_85\n      jumpi\n      mload(0x40)\n      0x08c379a000000000000000000000000000000000000000000000000000000000\n      dup2\n      mstore\n      0x04\n      add\n      tag_86\n      swap1\n      tag_87\n      jump\t// in\n    tag_86:\n      mload(0x40)\n      dup1\n      swap2\n      sub\n      swap1\n      revert\n    tag_85:\n        /* \"contracts/StakeUnstake.sol\":906:917  rewardToken */\n      0x03\n      0x00\n      swap1\n      sload\n      swap1\n      0x0100\n      exp\n      swap1\n      div\n      0xffffffffffffffffffffffffffffffffffffffff\n      and\n        /* \"contracts/StakeUnstake.sol\":906:930  rewardToken.transferFrom */\n      0xffffffffffffffffffffffffffffffffffffffff\n      and\n      0x23b872dd\n        /* \"contracts/StakeUnstake.sol\":931:941  msg.sender */\n      caller\n        /* \"contracts/StakeUnstake.sol\":951:955  this */\n      address\n        /* \"contracts/StakeUnstake.sol\":958:965  _amount */\n      dup5\n        /* \"contracts/StakeUnstake.sol\":906:966  rewardToken.transferFrom(msg.sender, address(this), _amount) */\n      mload(0x40)\n      dup5\n      0xffffffff\n      and\n      0xe0\n      shl\n      dup2\n      mstore\n      0x04\n      add\n      tag_88\n      swap4\n      swap3\n      swap2\n      swap1\n      tag_89\n      jump\t// in\n    tag_88:\n      0x20\n      mload(0x40)\n      dup1\n      dup4\n      sub\n      dup2\n      0x00\n      dup8\n      gas\n      call\n      iszero\n      dup1\n      iszero\n      tag_91\n      jumpi\n      returndatasize\n      0x00\n      dup1\n      returndatacopy\n      revert(0x00, returndatasize)\n    tag_91:\n      pop\n      pop\n      pop\n      pop\n      mload(0x40)\n      returndatasize\n      not(0x1f)\n      0x1f\n      dup3\n      add\n      and\n      dup3\n      add\n      dup1\n      0x40\n      mstore\n      pop\n      dup2\n      add\n      swap1\n      tag_92\n      swap2\n      swap1\n      tag_81\n      jump\t// in\n    tag_92:\n      pop\n        /* \"contracts/StakeUnstake.sol\":1069:1076  _amount */\n      dup1\n        /* \"contracts/StakeUnstake.sol\":1040:1054  stakingBalance */\n      0x05\n        /* \"contracts/StakeUnstake.sol\":1040:1066  stakingBalance[msg.sender] */\n      0x00\n        /* \"contracts/StakeUnstake.sol\":1055:1065  msg.sender */\n      caller\n        /* \"contracts/StakeUnstake.sol\":1040:1066  stakingBalance[msg.sender] */\n      0xffffffffffffffffffffffffffffffffffffffff\n      and\n      0xffffffffffffffffffffffffffffffffffffffff\n      and\n      dup2\n      mstore\n      0x20\n      add\n      swap1\n      dup2\n      mstore\n      0x20\n      add\n      0x00\n      keccak256\n      sload\n        /* \"contracts/StakeUnstake.sol\":1040:1076  stakingBalance[msg.sender] + _amount */\n      tag_93\n      swap2\n      swap1\n      tag_94\n      jump\t// in\n    tag_93:\n        /* \"contracts/StakeUnstake.sol\":1011:1025  stakingBalance */\n      0x05\n        /* \"contracts/StakeUnstake.sol\":1011:1037  stakingBalance[msg.sender] */\n      0x00\n        /* \"contracts/StakeUnstake.sol\":1026:1036  msg.sender */\n      caller\n        /* \"contracts/StakeUnstake.sol\":1011:1037  stakingBalance[msg.sender] */\n      0xffffffffffffffffffffffffffffffffffffffff\n      and\n      0xffffffffffffffffffffffffffffffffffffffff\n      and\n      dup2\n      mstore\n      0x20\n      add\n      swap1\n      dup2\n      mstore\n      0x20\n      add\n      0x00\n      keccak256\n        /* \"contracts/StakeUnstake.sol\":1011:1076  stakingBalance[msg.sender] = stakingBalance[msg.sender] + _amount */\n      dup2\n      swap1\n      sstore\n      pop\n        /* \"contracts/StakeUnstake.sol\":1166:1175  hasStaked */\n      0x06\n        /* \"contracts/StakeUnstake.sol\":1166:1187  hasStaked[msg.sender] */\n      0x00\n        /* \"contracts/StakeUnstake.sol\":1176:1186  msg.sender */\n      caller\n        /* \"contracts/StakeUnstake.sol\":1166:1187  hasStaked[msg.sender] */\n      0xffffffffffffffffffffffffffffffffffffffff\n      and\n      0xffffffffffffffffffffffffffffffffffffffff\n      and\n      dup2\n      mstore\n      0x20\n      add\n      swap1\n      dup2\n      mstore\n      0x20\n      add\n      0x00\n      keccak256\n      0x00\n      swap1\n      sload\n      swap1\n      0x0100\n      exp\n      swap1\n      div\n      0xff\n      and\n        /* \"contracts/StakeUnstake.sol\":1162:1238  if(!hasStaked[msg.sender]) {... */\n      tag_95\n      jumpi\n        /* \"contracts/StakeUnstake.sol\":1203:1210  stakers */\n      0x04\n        /* \"contracts/StakeUnstake.sol\":1216:1226  msg.sender */\n      caller\n        /* \"contracts/StakeUnstake.sol\":1203:1227  stakers.push(msg.sender) */\n      swap1\n      dup1\n      0x01\n      dup2\n      sload\n      add\n      dup1\n      dup3\n      sstore\n      dup1\n      swap2\n      pop\n      pop\n      0x01\n      swap1\n      sub\n      swap1\n      0x00\n      mstore\n      keccak256(0x00, 0x20)\n      add\n      0x00\n      swap1\n      swap2\n      swap1\n      swap2\n      swap1\n      swap2\n      0x0100\n      exp\n      dup2\n      sload\n      dup2\n      0xffffffffffffffffffffffffffffffffffffffff\n      mul\n      not\n      and\n      swap1\n      dup4\n      0xffffffffffffffffffffffffffffffffffffffff\n      and\n      mul\n      or\n      swap1\n      sstore\n      pop\n        /* \"contracts/StakeUnstake.sol\":1162:1238  if(!hasStaked[msg.sender]) {... */\n    tag_95:\n        /* \"contracts/StakeUnstake.sol\":1305:1309  true */\n      0x01\n        /* \"contracts/StakeUnstake.sol\":1281:1290  isStaking */\n      0x07\n        /* \"contracts/StakeUnstake.sol\":1281:1302  isStaking[msg.sender] */\n      0x00\n        /* \"contracts/StakeUnstake.sol\":1291:1301  msg.sender */\n      caller\n        /* \"contracts/StakeUnstake.sol\":1281:1302  isStaking[msg.sender] */\n      0xffffffffffffffffffffffffffffffffffffffff\n      and\n      0xffffffffffffffffffffffffffffffffffffffff\n      and\n      dup2\n      mstore\n      0x20\n      add\n      swap1\n      dup2\n      mstore\n      0x20\n      add\n      0x00\n      keccak256\n      0x00\n        /* \"contracts/StakeUnstake.sol\":1281:1309  isStaking[msg.sender] = true */\n      0x0100\n      exp\n      dup2\n      sload\n      dup2\n      0xff\n      mul\n      not\n      and\n      swap1\n      dup4\n      iszero\n      iszero\n      mul\n      or\n      swap1\n      sstore\n      pop\n        /* \"contracts/StakeUnstake.sol\":1343:1347  true */\n      0x01\n        /* \"contracts/StakeUnstake.sol\":1319:1328  hasStaked */\n      0x06\n        /* \"contracts/StakeUnstake.sol\":1319:1340  hasStaked[msg.sender] */\n      0x00\n        /* \"contracts/StakeUnstake.sol\":1329:1339  msg.sender */\n      caller\n        /* \"contracts/StakeUnstake.sol\":1319:1340  hasStaked[msg.sender] */\n      0xffffffffffffffffffffffffffffffffffffffff\n      and\n      0xffffffffffffffffffffffffffffffffffffffff\n      and\n      dup2\n      mstore\n      0x20\n      add\n      swap1\n      dup2\n      mstore\n      0x20\n      add\n      0x00\n      keccak256\n      0x00\n        /* \"contracts/StakeUnstake.sol\":1319:1347  hasStaked[msg.sender] = true */\n      0x0100\n      exp\n      dup2\n      sload\n      dup2\n      0xff\n      mul\n      not\n      and\n      swap1\n      dup4\n      iszero\n      iszero\n      mul\n      or\n      swap1\n      sstore\n      pop\n        /* \"contracts/StakeUnstake.sol\":695:1354  function stakeTokens(uint _amount) public {... */\n      pop\n      jump\t// out\n        /* \"contracts/StakeUnstake.sol\":203:223  address public owner */\n    tag_41:\n      0x01\n      0x00\n      swap1\n      sload\n      swap1\n      0x0100\n      exp\n      swap1\n      div\n      0xffffffffffffffffffffffffffffffffffffffff\n      and\n      dup2\n      jump\t// out\n        /* \"contracts/StakeUnstake.sol\":1395:1885  function unstakeTokens() public {... */\n    tag_45:\n        /* \"contracts/StakeUnstake.sol\":1470:1482  uint balance */\n      0x00\n        /* \"contracts/StakeUnstake.sol\":1485:1499  stakingBalance */\n      0x05\n        /* \"contracts/StakeUnstake.sol\":1485:1511  stakingBalance[msg.sender] */\n      0x00\n        /* \"contracts/StakeUnstake.sol\":1500:1510  msg.sender */\n      caller\n        /* \"contracts/StakeUnstake.sol\":1485:1511  stakingBalance[msg.sender] */\n      0xffffffffffffffffffffffffffffffffffffffff\n      and\n      0xffffffffffffffffffffffffffffffffffffffff\n      and\n      dup2\n      mstore\n      0x20\n      add\n      swap1\n      dup2\n      mstore\n      0x20\n      add\n      0x00\n      keccak256\n      sload\n        /* \"contracts/StakeUnstake.sol\":1470:1511  uint balance = stakingBalance[msg.sender] */\n      swap1\n      pop\n        /* \"contracts/StakeUnstake.sol\":1581:1582  0 */\n      0x00\n        /* \"contracts/StakeUnstake.sol\":1571:1578  balance */\n      dup2\n        /* \"contracts/StakeUnstake.sol\":1571:1582  balance > 0 */\n      gt\n        /* \"contracts/StakeUnstake.sol\":1563:1614  require(balance > 0, \"staking balance cannot be 0\") */\n      tag_98\n      jumpi\n      mload(0x40)\n      0x08c379a000000000000000000000000000000000000000000000000000000000\n      dup2\n      mstore\n      0x04\n      add\n      tag_99\n      swap1\n      tag_100\n      jump\t// in\n    tag_99:\n      mload(0x40)\n      dup1\n      swap2\n      sub\n      swap1\n      revert\n    tag_98:\n        /* \"contracts/StakeUnstake.sol\":1690:1701  rewardToken */\n      0x03\n      0x00\n      swap1\n      sload\n      swap1\n      0x0100\n      exp\n      swap1\n      div\n      0xffffffffffffffffffffffffffffffffffffffff\n      and\n        /* \"contracts/StakeUnstake.sol\":1690:1710  rewardToken.transfer */\n      0xffffffffffffffffffffffffffffffffffffffff\n      and\n      0xa9059cbb\n        /* \"contracts/StakeUnstake.sol\":1711:1721  msg.sender */\n      caller\n        /* \"contracts/StakeUnstake.sol\":1723:1730  balance */\n      dup4\n        /* \"contracts/StakeUnstake.sol\":1690:1731  rewardToken.transfer(msg.sender, balance) */\n      mload(0x40)\n      dup4\n      0xffffffff\n      and\n      0xe0\n      shl\n      dup2\n      mstore\n      0x04\n      add\n      tag_101\n      swap3\n      swap2\n      swap1\n      tag_77\n      jump\t// in\n    tag_101:\n      0x20\n      mload(0x40)\n      dup1\n      dup4\n      sub\n      dup2\n      0x00\n      dup8\n      gas\n      call\n      iszero\n      dup1\n      iszero\n      tag_103\n      jumpi\n      returndatasize\n      0x00\n      dup1\n      returndatacopy\n      revert(0x00, returndatasize)\n    tag_103:\n      pop\n      pop\n      pop\n      pop\n      mload(0x40)\n      returndatasize\n      not(0x1f)\n      0x1f\n      dup3\n      add\n      and\n      dup3\n      add\n      dup1\n      0x40\n      mstore\n      pop\n      dup2\n      add\n      swap1\n      tag_104\n      swap2\n      swap1\n      tag_81\n      jump\t// in\n    tag_104:\n      pop\n        /* \"contracts/StakeUnstake.sol\":1804:1805  0 */\n      0x00\n        /* \"contracts/StakeUnstake.sol\":1775:1789  stakingBalance */\n      0x05\n        /* \"contracts/StakeUnstake.sol\":1775:1801  stakingBalance[msg.sender] */\n      0x00\n        /* \"contracts/StakeUnstake.sol\":1790:1800  msg.sender */\n      caller\n        /* \"contracts/StakeUnstake.sol\":1775:1801  stakingBalance[msg.sender] */\n      0xffffffffffffffffffffffffffffffffffffffff\n      and\n      0xffffffffffffffffffffffffffffffffffffffff\n      and\n      dup2\n      mstore\n      0x20\n      add\n      swap1\n      dup2\n      mstore\n      0x20\n      add\n      0x00\n      keccak256\n        /* \"contracts/StakeUnstake.sol\":1775:1805  stakingBalance[msg.sender] = 0 */\n      dup2\n      swap1\n      sstore\n      pop\n        /* \"contracts/StakeUnstake.sol\":1873:1878  false */\n      0x00\n        /* \"contracts/StakeUnstake.sol\":1849:1858  isStaking */\n      0x07\n        /* \"contracts/StakeUnstake.sol\":1849:1870  isStaking[msg.sender] */\n      0x00\n        /* \"contracts/StakeUnstake.sol\":1859:1869  msg.sender */\n      caller\n        /* \"contracts/StakeUnstake.sol\":1849:1870  isStaking[msg.sender] */\n      0xffffffffffffffffffffffffffffffffffffffff\n      and\n      0xffffffffffffffffffffffffffffffffffffffff\n      and\n      dup2\n      mstore\n      0x20\n      add\n      swap1\n      dup2\n      mstore\n      0x20\n      add\n      0x00\n      keccak256\n      0x00\n        /* \"contracts/StakeUnstake.sol\":1849:1878  isStaking[msg.sender] = false */\n      0x0100\n      exp\n      dup2\n      sload\n      dup2\n      0xff\n      mul\n      not\n      and\n      swap1\n      dup4\n      iszero\n      iszero\n      mul\n      or\n      swap1\n      sstore\n      pop\n        /* \"contracts/StakeUnstake.sol\":1427:1885  {... */\n      pop\n        /* \"contracts/StakeUnstake.sol\":1395:1885  function unstakeTokens() public {... */\n      jump\t// out\n        /* \"contracts/StakeUnstake.sol\":395:436  mapping(address => bool) public hasStaked */\n    tag_48:\n      mstore(0x20, 0x06)\n      dup1\n      0x00\n      mstore\n      keccak256(0x00, 0x40)\n      0x00\n      swap2\n      pop\n      sload\n      swap1\n      0x0100\n      exp\n      swap1\n      div\n      0xff\n      and\n      dup2\n      jump\t// out\n        /* \"contracts/StakeUnstake.sol\":275:306  RewardRToken public rewardToken */\n    tag_51:\n      0x03\n      0x00\n      swap1\n      sload\n      swap1\n      0x0100\n      exp\n      swap1\n      div\n      0xffffffffffffffffffffffffffffffffffffffff\n      and\n      dup2\n      jump\t// out\n        /* \"contracts/StakeUnstake.sol\":313:337  address[] public stakers */\n    tag_56:\n      0x04\n      dup2\n      dup2\n      sload\n      dup2\n      lt\n      tag_105\n      jumpi\n      0x00\n      dup1\n      revert\n    tag_105:\n      swap1\n      0x00\n      mstore\n      keccak256(0x00, 0x20)\n      add\n      0x00\n      swap2\n      pop\n      sload\n      swap1\n      0x0100\n      exp\n      swap1\n      div\n      0xffffffffffffffffffffffffffffffffffffffff\n      and\n      dup2\n      jump\t// out\n        /* \"#utility.yul\":7:106   */\n    tag_107:\n        /* \"#utility.yul\":59:65   */\n      0x00\n        /* \"#utility.yul\":93:98   */\n      dup2\n        /* \"#utility.yul\":87:99   */\n      mload\n        /* \"#utility.yul\":77:99   */\n      swap1\n      pop\n        /* \"#utility.yul\":7:106   */\n      swap2\n      swap1\n      pop\n      jump\t// out\n        /* \"#utility.yul\":112:281   */\n    tag_108:\n        /* \"#utility.yul\":196:207   */\n      0x00\n        /* \"#utility.yul\":230:236   */\n      dup3\n        /* \"#utility.yul\":225:228   */\n      dup3\n        /* \"#utility.yul\":218:237   */\n      mstore\n        /* \"#utility.yul\":270:274   */\n      0x20\n        /* \"#utility.yul\":265:268   */\n      dup3\n        /* \"#utility.yul\":261:275   */\n      add\n        /* \"#utility.yul\":246:275   */\n      swap1\n      pop\n        /* \"#utility.yul\":112:281   */\n      swap3\n      swap2\n      pop\n      pop\n      jump\t// out\n        /* \"#utility.yul\":287:594   */\n    tag_109:\n        /* \"#utility.yul\":355:356   */\n      0x00\n        /* \"#utility.yul\":365:478   */\n    tag_147:\n        /* \"#utility.yul\":379:385   */\n      dup4\n        /* \"#utility.yul\":376:377   */\n      dup2\n        /* \"#utility.yul\":373:386   */\n      lt\n        /* \"#utility.yul\":365:478   */\n      iszero\n      tag_149\n      jumpi\n        /* \"#utility.yul\":464:465   */\n      dup1\n        /* \"#utility.yul\":459:462   */\n      dup3\n        /* \"#utility.yul\":455:466   */\n      add\n        /* \"#utility.yul\":449:467   */\n      mload\n        /* \"#utility.yul\":445:446   */\n      dup2\n        /* \"#utility.yul\":440:443   */\n      dup5\n        /* \"#utility.yul\":436:447   */\n      add\n        /* \"#utility.yul\":429:468   */\n      mstore\n        /* \"#utility.yul\":401:403   */\n      0x20\n        /* \"#utility.yul\":398:399   */\n      dup2\n        /* \"#utility.yul\":394:404   */\n      add\n        /* \"#utility.yul\":389:404   */\n      swap1\n      pop\n        /* \"#utility.yul\":365:478   */\n      jump(tag_147)\n    tag_149:\n        /* \"#utility.yul\":496:502   */\n      dup4\n        /* \"#utility.yul\":493:494   */\n      dup2\n        /* \"#utility.yul\":490:503   */\n      gt\n        /* \"#utility.yul\":487:588   */\n      iszero\n      tag_150\n      jumpi\n        /* \"#utility.yul\":576:577   */\n      0x00\n        /* \"#utility.yul\":567:573   */\n      dup5\n        /* \"#utility.yul\":562:565   */\n      dup5\n        /* \"#utility.yul\":558:574   */\n      add\n        /* \"#utility.yul\":551:578   */\n      mstore\n        /* \"#utility.yul\":487:588   */\n    tag_150:\n        /* \"#utility.yul\":336:594   */\n      pop\n        /* \"#utility.yul\":287:594   */\n      pop\n      pop\n      pop\n      jump\t// out\n        /* \"#utility.yul\":600:702   */\n    tag_110:\n        /* \"#utility.yul\":641:647   */\n      0x00\n        /* \"#utility.yul\":692:694   */\n      0x1f\n        /* \"#utility.yul\":688:695   */\n      not\n        /* \"#utility.yul\":683:685   */\n      0x1f\n        /* \"#utility.yul\":676:681   */\n      dup4\n        /* \"#utility.yul\":672:686   */\n      add\n        /* \"#utility.yul\":668:696   */\n      and\n        /* \"#utility.yul\":658:696   */\n      swap1\n      pop\n        /* \"#utility.yul\":600:702   */\n      swap2\n      swap1\n      pop\n      jump\t// out\n        /* \"#utility.yul\":708:1072   */\n    tag_111:\n        /* \"#utility.yul\":796:799   */\n      0x00\n        /* \"#utility.yul\":824:863   */\n      tag_153\n        /* \"#utility.yul\":857:862   */\n      dup3\n        /* \"#utility.yul\":824:863   */\n      tag_107\n      jump\t// in\n    tag_153:\n        /* \"#utility.yul\":879:950   */\n      tag_154\n        /* \"#utility.yul\":943:949   */\n      dup2\n        /* \"#utility.yul\":938:941   */\n      dup6\n        /* \"#utility.yul\":879:950   */\n      tag_108\n      jump\t// in\n    tag_154:\n        /* \"#utility.yul\":872:950   */\n      swap4\n      pop\n        /* \"#utility.yul\":959:1011   */\n      tag_155\n        /* \"#utility.yul\":1004:1010   */\n      dup2\n        /* \"#utility.yul\":999:1002   */\n      dup6\n        /* \"#utility.yul\":992:996   */\n      0x20\n        /* \"#utility.yul\":985:990   */\n      dup7\n        /* \"#utility.yul\":981:997   */\n      add\n        /* \"#utility.yul\":959:1011   */\n      tag_109\n      jump\t// in\n    tag_155:\n        /* \"#utility.yul\":1036:1065   */\n      tag_156\n        /* \"#utility.yul\":1058:1064   */\n      dup2\n        /* \"#utility.yul\":1036:1065   */\n      tag_110\n      jump\t// in\n    tag_156:\n        /* \"#utility.yul\":1031:1034   */\n      dup5\n        /* \"#utility.yul\":1027:1066   */\n      add\n        /* \"#utility.yul\":1020:1066   */\n      swap2\n      pop\n        /* \"#utility.yul\":800:1072   */\n      pop\n        /* \"#utility.yul\":708:1072   */\n      swap3\n      swap2\n      pop\n      pop\n      jump\t// out\n        /* \"#utility.yul\":1078:1391   */\n    tag_18:\n        /* \"#utility.yul\":1191:1195   */\n      0x00\n        /* \"#utility.yul\":1229:1231   */\n      0x20\n        /* \"#utility.yul\":1218:1227   */\n      dup3\n        /* \"#utility.yul\":1214:1232   */\n      add\n        /* \"#utility.yul\":1206:1232   */\n      swap1\n      pop\n        /* \"#utility.yul\":1278:1287   */\n      dup2\n        /* \"#utility.yul\":1272:1276   */\n      dup2\n        /* \"#utility.yul\":1268:1288   */\n      sub\n        /* \"#utility.yul\":1264:1265   */\n      0x00\n        /* \"#utility.yul\":1253:1262   */\n      dup4\n        /* \"#utility.yul\":1249:1266   */\n      add\n        /* \"#utility.yul\":1242:1289   */\n      mstore\n        /* \"#utility.yul\":1306:1384   */\n      tag_158\n        /* \"#utility.yul\":1379:1383   */\n      dup2\n        /* \"#utility.yul\":1370:1376   */\n      dup5\n        /* \"#utility.yul\":1306:1384   */\n      tag_111\n      jump\t// in\n    tag_158:\n        /* \"#utility.yul\":1298:1384   */\n      swap1\n      pop\n        /* \"#utility.yul\":1078:1391   */\n      swap3\n      swap2\n      pop\n      pop\n      jump\t// out\n        /* \"#utility.yul\":1397:1523   */\n    tag_112:\n        /* \"#utility.yul\":1434:1441   */\n      0x00\n        /* \"#utility.yul\":1474:1516   */\n      0xffffffffffffffffffffffffffffffffffffffff\n        /* \"#utility.yul\":1467:1472   */\n      dup3\n        /* \"#utility.yul\":1463:1517   */\n      and\n        /* \"#utility.yul\":1452:1517   */\n      swap1\n      pop\n        /* \"#utility.yul\":1397:1523   */\n      swap2\n      swap1\n      pop\n      jump\t// out\n        /* \"#utility.yul\":1529:1589   */\n    tag_113:\n        /* \"#utility.yul\":1557:1560   */\n      0x00\n        /* \"#utility.yul\":1578:1583   */\n      dup2\n        /* \"#utility.yul\":1571:1583   */\n      swap1\n      pop\n        /* \"#utility.yul\":1529:1589   */\n      swap2\n      swap1\n      pop\n      jump\t// out\n        /* \"#utility.yul\":1595:1737   */\n    tag_114:\n        /* \"#utility.yul\":1645:1654   */\n      0x00\n        /* \"#utility.yul\":1678:1731   */\n      tag_162\n        /* \"#utility.yul\":1696:1730   */\n      tag_163\n        /* \"#utility.yul\":1705:1729   */\n      tag_164\n        /* \"#utility.yul\":1723:1728   */\n      dup5\n        /* \"#utility.yul\":1705:1729   */\n      tag_112\n      jump\t// in\n    tag_164:\n        /* \"#utility.yul\":1696:1730   */\n      tag_113\n      jump\t// in\n    tag_163:\n        /* \"#utility.yul\":1678:1731   */\n      tag_112\n      jump\t// in\n    tag_162:\n        /* \"#utility.yul\":1665:1731   */\n      swap1\n      pop\n        /* \"#utility.yul\":1595:1737   */\n      swap2\n      swap1\n      pop\n      jump\t// out\n        /* \"#utility.yul\":1743:1869   */\n    tag_115:\n        /* \"#utility.yul\":1793:1802   */\n      0x00\n        /* \"#utility.yul\":1826:1863   */\n      tag_166\n        /* \"#utility.yul\":1857:1862   */\n      dup3\n        /* \"#utility.yul\":1826:1863   */\n      tag_114\n      jump\t// in\n    tag_166:\n        /* \"#utility.yul\":1813:1863   */\n      swap1\n      pop\n        /* \"#utility.yul\":1743:1869   */\n      swap2\n      swap1\n      pop\n      jump\t// out\n        /* \"#utility.yul\":1875:2025   */\n    tag_116:\n        /* \"#utility.yul\":1949:1958   */\n      0x00\n        /* \"#utility.yul\":1982:2019   */\n      tag_168\n        /* \"#utility.yul\":2013:2018   */\n      dup3\n        /* \"#utility.yul\":1982:2019   */\n      tag_115\n      jump\t// in\n    tag_168:\n        /* \"#utility.yul\":1969:2019   */\n      swap1\n      pop\n        /* \"#utility.yul\":1875:2025   */\n      swap2\n      swap1\n      pop\n      jump\t// out\n        /* \"#utility.yul\":2031:2210   */\n    tag_117:\n        /* \"#utility.yul\":2142:2203   */\n      tag_170\n        /* \"#utility.yul\":2197:2202   */\n      dup2\n        /* \"#utility.yul\":2142:2203   */\n      tag_116\n      jump\t// in\n    tag_170:\n        /* \"#utility.yul\":2137:2140   */\n      dup3\n        /* \"#utility.yul\":2130:2204   */\n      mstore\n        /* \"#utility.yul\":2031:2210   */\n      pop\n      pop\n      jump\t// out\n        /* \"#utility.yul\":2216:2486   */\n    tag_22:\n        /* \"#utility.yul\":2333:2337   */\n      0x00\n        /* \"#utility.yul\":2371:2373   */\n      0x20\n        /* \"#utility.yul\":2360:2369   */\n      dup3\n        /* \"#utility.yul\":2356:2374   */\n      add\n        /* \"#utility.yul\":2348:2374   */\n      swap1\n      pop\n        /* \"#utility.yul\":2384:2479   */\n      tag_172\n        /* \"#utility.yul\":2476:2477   */\n      0x00\n        /* \"#utility.yul\":2465:2474   */\n      dup4\n        /* \"#utility.yul\":2461:2478   */\n      add\n        /* \"#utility.yul\":2452:2458   */\n      dup5\n        /* \"#utility.yul\":2384:2479   */\n      tag_117\n      jump\t// in\n    tag_172:\n        /* \"#utility.yul\":2216:2486   */\n      swap3\n      swap2\n      pop\n      pop\n      jump\t// out\n        /* \"#utility.yul\":2573:2690   */\n    tag_119:\n        /* \"#utility.yul\":2682:2683   */\n      0x00\n        /* \"#utility.yul\":2679:2680   */\n      dup1\n        /* \"#utility.yul\":2672:2684   */\n      revert\n        /* \"#utility.yul\":2819:2915   */\n    tag_121:\n        /* \"#utility.yul\":2856:2863   */\n      0x00\n        /* \"#utility.yul\":2885:2909   */\n      tag_177\n        /* \"#utility.yul\":2903:2908   */\n      dup3\n        /* \"#utility.yul\":2885:2909   */\n      tag_112\n      jump\t// in\n    tag_177:\n        /* \"#utility.yul\":2874:2909   */\n      swap1\n      pop\n        /* \"#utility.yul\":2819:2915   */\n      swap2\n      swap1\n      pop\n      jump\t// out\n        /* \"#utility.yul\":2921:3043   */\n    tag_122:\n        /* \"#utility.yul\":2994:3018   */\n      tag_179\n        /* \"#utility.yul\":3012:3017   */\n      dup2\n        /* \"#utility.yul\":2994:3018   */\n      tag_121\n      jump\t// in\n    tag_179:\n        /* \"#utility.yul\":2987:2992   */\n      dup2\n        /* \"#utility.yul\":2984:3019   */\n      eq\n        /* \"#utility.yul\":2974:3037   */\n      tag_180\n      jumpi\n        /* \"#utility.yul\":3033:3034   */\n      0x00\n        /* \"#utility.yul\":3030:3031   */\n      dup1\n        /* \"#utility.yul\":3023:3035   */\n      revert\n        /* \"#utility.yul\":2974:3037   */\n    tag_180:\n        /* \"#utility.yul\":2921:3043   */\n      pop\n      jump\t// out\n        /* \"#utility.yul\":3049:3188   */\n    tag_123:\n        /* \"#utility.yul\":3095:3100   */\n      0x00\n        /* \"#utility.yul\":3133:3139   */\n      dup2\n        /* \"#utility.yul\":3120:3140   */\n      calldataload\n        /* \"#utility.yul\":3111:3140   */\n      swap1\n      pop\n        /* \"#utility.yul\":3149:3182   */\n      tag_182\n        /* \"#utility.yul\":3176:3181   */\n      dup2\n        /* \"#utility.yul\":3149:3182   */\n      tag_122\n      jump\t// in\n    tag_182:\n        /* \"#utility.yul\":3049:3188   */\n      swap3\n      swap2\n      pop\n      pop\n      jump\t// out\n        /* \"#utility.yul\":3194:3523   */\n    tag_25:\n        /* \"#utility.yul\":3253:3259   */\n      0x00\n        /* \"#utility.yul\":3302:3304   */\n      0x20\n        /* \"#utility.yul\":3290:3299   */\n      dup3\n        /* \"#utility.yul\":3281:3288   */\n      dup5\n        /* \"#utility.yul\":3277:3300   */\n      sub\n        /* \"#utility.yul\":3273:3305   */\n      slt\n        /* \"#utility.yul\":3270:3389   */\n      iszero\n      tag_184\n      jumpi\n        /* \"#utility.yul\":3308:3387   */\n      tag_185\n      tag_119\n      jump\t// in\n    tag_185:\n        /* \"#utility.yul\":3270:3389   */\n    tag_184:\n        /* \"#utility.yul\":3428:3429   */\n      0x00\n        /* \"#utility.yul\":3453:3506   */\n      tag_186\n        /* \"#utility.yul\":3498:3505   */\n      dup5\n        /* \"#utility.yul\":3489:3495   */\n      dup3\n        /* \"#utility.yul\":3478:3487   */\n      dup6\n        /* \"#utility.yul\":3474:3496   */\n      add\n        /* \"#utility.yul\":3453:3506   */\n      tag_123\n      jump\t// in\n    tag_186:\n        /* \"#utility.yul\":3443:3506   */\n      swap2\n      pop\n        /* \"#utility.yul\":3399:3516   */\n      pop\n        /* \"#utility.yul\":3194:3523   */\n      swap3\n      swap2\n      pop\n      pop\n      jump\t// out\n        /* \"#utility.yul\":3529:3606   */\n    tag_124:\n        /* \"#utility.yul\":3566:3573   */\n      0x00\n        /* \"#utility.yul\":3595:3600   */\n      dup2\n        /* \"#utility.yul\":3584:3600   */\n      swap1\n      pop\n        /* \"#utility.yul\":3529:3606   */\n      swap2\n      swap1\n      pop\n      jump\t// out\n        /* \"#utility.yul\":3612:3730   */\n    tag_125:\n        /* \"#utility.yul\":3699:3723   */\n      tag_189\n        /* \"#utility.yul\":3717:3722   */\n      dup2\n        /* \"#utility.yul\":3699:3723   */\n      tag_124\n      jump\t// in\n    tag_189:\n        /* \"#utility.yul\":3694:3697   */\n      dup3\n        /* \"#utility.yul\":3687:3724   */\n      mstore\n        /* \"#utility.yul\":3612:3730   */\n      pop\n      pop\n      jump\t// out\n        /* \"#utility.yul\":3736:3958   */\n    tag_28:\n        /* \"#utility.yul\":3829:3833   */\n      0x00\n        /* \"#utility.yul\":3867:3869   */\n      0x20\n        /* \"#utility.yul\":3856:3865   */\n      dup3\n        /* \"#utility.yul\":3852:3870   */\n      add\n        /* \"#utility.yul\":3844:3870   */\n      swap1\n      pop\n        /* \"#utility.yul\":3880:3951   */\n      tag_191\n        /* \"#utility.yul\":3948:3949   */\n      0x00\n        /* \"#utility.yul\":3937:3946   */\n      dup4\n        /* \"#utility.yul\":3933:3950   */\n      add\n        /* \"#utility.yul\":3924:3930   */\n      dup5\n        /* \"#utility.yul\":3880:3951   */\n      tag_125\n      jump\t// in\n    tag_191:\n        /* \"#utility.yul\":3736:3958   */\n      swap3\n      swap2\n      pop\n      pop\n      jump\t// out\n        /* \"#utility.yul\":3964:4054   */\n    tag_126:\n        /* \"#utility.yul\":3998:4005   */\n      0x00\n        /* \"#utility.yul\":4041:4046   */\n      dup2\n        /* \"#utility.yul\":4034:4047   */\n      iszero\n        /* \"#utility.yul\":4027:4048   */\n      iszero\n        /* \"#utility.yul\":4016:4048   */\n      swap1\n      pop\n        /* \"#utility.yul\":3964:4054   */\n      swap2\n      swap1\n      pop\n      jump\t// out\n        /* \"#utility.yul\":4060:4169   */\n    tag_127:\n        /* \"#utility.yul\":4141:4162   */\n      tag_194\n        /* \"#utility.yul\":4156:4161   */\n      dup2\n        /* \"#utility.yul\":4141:4162   */\n      tag_126\n      jump\t// in\n    tag_194:\n        /* \"#utility.yul\":4136:4139   */\n      dup3\n        /* \"#utility.yul\":4129:4163   */\n      mstore\n        /* \"#utility.yul\":4060:4169   */\n      pop\n      pop\n      jump\t// out\n        /* \"#utility.yul\":4175:4385   */\n    tag_35:\n        /* \"#utility.yul\":4262:4266   */\n      0x00\n        /* \"#utility.yul\":4300:4302   */\n      0x20\n        /* \"#utility.yul\":4289:4298   */\n      dup3\n        /* \"#utility.yul\":4285:4303   */\n      add\n        /* \"#utility.yul\":4277:4303   */\n      swap1\n      pop\n        /* \"#utility.yul\":4313:4378   */\n      tag_196\n        /* \"#utility.yul\":4375:4376   */\n      0x00\n        /* \"#utility.yul\":4364:4373   */\n      dup4\n        /* \"#utility.yul\":4360:4377   */\n      add\n        /* \"#utility.yul\":4351:4357   */\n      dup5\n        /* \"#utility.yul\":4313:4378   */\n      tag_127\n      jump\t// in\n    tag_196:\n        /* \"#utility.yul\":4175:4385   */\n      swap3\n      swap2\n      pop\n      pop\n      jump\t// out\n        /* \"#utility.yul\":4391:4513   */\n    tag_128:\n        /* \"#utility.yul\":4464:4488   */\n      tag_198\n        /* \"#utility.yul\":4482:4487   */\n      dup2\n        /* \"#utility.yul\":4464:4488   */\n      tag_124\n      jump\t// in\n    tag_198:\n        /* \"#utility.yul\":4457:4462   */\n      dup2\n        /* \"#utility.yul\":4454:4489   */\n      eq\n        /* \"#utility.yul\":4444:4507   */\n      tag_199\n      jumpi\n        /* \"#utility.yul\":4503:4504   */\n      0x00\n        /* \"#utility.yul\":4500:4501   */\n      dup1\n        /* \"#utility.yul\":4493:4505   */\n      revert\n        /* \"#utility.yul\":4444:4507   */\n    tag_199:\n        /* \"#utility.yul\":4391:4513   */\n      pop\n      jump\t// out\n        /* \"#utility.yul\":4519:4658   */\n    tag_129:\n        /* \"#utility.yul\":4565:4570   */\n      0x00\n        /* \"#utility.yul\":4603:4609   */\n      dup2\n        /* \"#utility.yul\":4590:4610   */\n      calldataload\n        /* \"#utility.yul\":4581:4610   */\n      swap1\n      pop\n        /* \"#utility.yul\":4619:4652   */\n      tag_201\n        /* \"#utility.yul\":4646:4651   */\n      dup2\n        /* \"#utility.yul\":4619:4652   */\n      tag_128\n      jump\t// in\n    tag_201:\n        /* \"#utility.yul\":4519:4658   */\n      swap3\n      swap2\n      pop\n      pop\n      jump\t// out\n        /* \"#utility.yul\":4664:4993   */\n    tag_38:\n        /* \"#utility.yul\":4723:4729   */\n      0x00\n        /* \"#utility.yul\":4772:4774   */\n      0x20\n        /* \"#utility.yul\":4760:4769   */\n      dup3\n        /* \"#utility.yul\":4751:4758   */\n      dup5\n        /* \"#utility.yul\":4747:4770   */\n      sub\n        /* \"#utility.yul\":4743:4775   */\n      slt\n        /* \"#utility.yul\":4740:4859   */\n      iszero\n      tag_203\n      jumpi\n        /* \"#utility.yul\":4778:4857   */\n      tag_204\n      tag_119\n      jump\t// in\n    tag_204:\n        /* \"#utility.yul\":4740:4859   */\n    tag_203:\n        /* \"#utility.yul\":4898:4899   */\n      0x00\n        /* \"#utility.yul\":4923:4976   */\n      tag_205\n        /* \"#utility.yul\":4968:4975   */\n      dup5\n        /* \"#utility.yul\":4959:4965   */\n      dup3\n        /* \"#utility.yul\":4948:4957   */\n      dup6\n        /* \"#utility.yul\":4944:4966   */\n      add\n        /* \"#utility.yul\":4923:4976   */\n      tag_129\n      jump\t// in\n    tag_205:\n        /* \"#utility.yul\":4913:4976   */\n      swap2\n      pop\n        /* \"#utility.yul\":4869:4986   */\n      pop\n        /* \"#utility.yul\":4664:4993   */\n      swap3\n      swap2\n      pop\n      pop\n      jump\t// out\n        /* \"#utility.yul\":4999:5117   */\n    tag_130:\n        /* \"#utility.yul\":5086:5110   */\n      tag_207\n        /* \"#utility.yul\":5104:5109   */\n      dup2\n        /* \"#utility.yul\":5086:5110   */\n      tag_121\n      jump\t// in\n    tag_207:\n        /* \"#utility.yul\":5081:5084   */\n      dup3\n        /* \"#utility.yul\":5074:5111   */\n      mstore\n        /* \"#utility.yul\":4999:5117   */\n      pop\n      pop\n      jump\t// out\n        /* \"#utility.yul\":5123:5345   */\n    tag_43:\n        /* \"#utility.yul\":5216:5220   */\n      0x00\n        /* \"#utility.yul\":5254:5256   */\n      0x20\n        /* \"#utility.yul\":5243:5252   */\n      dup3\n        /* \"#utility.yul\":5239:5257   */\n      add\n        /* \"#utility.yul\":5231:5257   */\n      swap1\n      pop\n        /* \"#utility.yul\":5267:5338   */\n      tag_209\n        /* \"#utility.yul\":5335:5336   */\n      0x00\n        /* \"#utility.yul\":5324:5333   */\n      dup4\n        /* \"#utility.yul\":5320:5337   */\n      add\n        /* \"#utility.yul\":5311:5317   */\n      dup5\n        /* \"#utility.yul\":5267:5338   */\n      tag_130\n      jump\t// in\n    tag_209:\n        /* \"#utility.yul\":5123:5345   */\n      swap3\n      swap2\n      pop\n      pop\n      jump\t// out\n        /* \"#utility.yul\":5351:5497   */\n    tag_131:\n        /* \"#utility.yul\":5421:5430   */\n      0x00\n        /* \"#utility.yul\":5454:5491   */\n      tag_211\n        /* \"#utility.yul\":5485:5490   */\n      dup3\n        /* \"#utility.yul\":5454:5491   */\n      tag_115\n      jump\t// in\n    tag_211:\n        /* \"#utility.yul\":5441:5491   */\n      swap1\n      pop\n        /* \"#utility.yul\":5351:5497   */\n      swap2\n      swap1\n      pop\n      jump\t// out\n        /* \"#utility.yul\":5503:5674   */\n    tag_132:\n        /* \"#utility.yul\":5610:5667   */\n      tag_213\n        /* \"#utility.yul\":5661:5666   */\n      dup2\n        /* \"#utility.yul\":5610:5667   */\n      tag_131\n      jump\t// in\n    tag_213:\n        /* \"#utility.yul\":5605:5608   */\n      dup3\n        /* \"#utility.yul\":5598:5668   */\n      mstore\n        /* \"#utility.yul\":5503:5674   */\n      pop\n      pop\n      jump\t// out\n        /* \"#utility.yul\":5680:5942   */\n    tag_53:\n        /* \"#utility.yul\":5793:5797   */\n      0x00\n        /* \"#utility.yul\":5831:5833   */\n      0x20\n        /* \"#utility.yul\":5820:5829   */\n      dup3\n        /* \"#utility.yul\":5816:5834   */\n      add\n        /* \"#utility.yul\":5808:5834   */\n      swap1\n      pop\n        /* \"#utility.yul\":5844:5935   */\n      tag_215\n        /* \"#utility.yul\":5932:5933   */\n      0x00\n        /* \"#utility.yul\":5921:5930   */\n      dup4\n        /* \"#utility.yul\":5917:5934   */\n      add\n        /* \"#utility.yul\":5908:5914   */\n      dup5\n        /* \"#utility.yul\":5844:5935   */\n      tag_132\n      jump\t// in\n    tag_215:\n        /* \"#utility.yul\":5680:5942   */\n      swap3\n      swap2\n      pop\n      pop\n      jump\t// out\n        /* \"#utility.yul\":5948:6128   */\n    tag_133:\n        /* \"#utility.yul\":5996:6073   */\n      0x4e487b7100000000000000000000000000000000000000000000000000000000\n        /* \"#utility.yul\":5993:5994   */\n      0x00\n        /* \"#utility.yul\":5986:6074   */\n      mstore\n        /* \"#utility.yul\":6093:6097   */\n      0x22\n        /* \"#utility.yul\":6090:6091   */\n      0x04\n        /* \"#utility.yul\":6083:6098   */\n      mstore\n        /* \"#utility.yul\":6117:6121   */\n      0x24\n        /* \"#utility.yul\":6114:6115   */\n      0x00\n        /* \"#utility.yul\":6107:6122   */\n      revert\n        /* \"#utility.yul\":6134:6454   */\n    tag_59:\n        /* \"#utility.yul\":6178:6184   */\n      0x00\n        /* \"#utility.yul\":6215:6216   */\n      0x02\n        /* \"#utility.yul\":6209:6213   */\n      dup3\n        /* \"#utility.yul\":6205:6217   */\n      div\n        /* \"#utility.yul\":6195:6217   */\n      swap1\n      pop\n        /* \"#utility.yul\":6262:6263   */\n      0x01\n        /* \"#utility.yul\":6256:6260   */\n      dup3\n        /* \"#utility.yul\":6252:6264   */\n      and\n        /* \"#utility.yul\":6283:6301   */\n      dup1\n        /* \"#utility.yul\":6273:6354   */\n      tag_218\n      jumpi\n        /* \"#utility.yul\":6339:6343   */\n      0x7f\n        /* \"#utility.yul\":6331:6337   */\n      dup3\n        /* \"#utility.yul\":6327:6344   */\n      and\n        /* \"#utility.yul\":6317:6344   */\n      swap2\n      pop\n        /* \"#utility.yul\":6273:6354   */\n    tag_218:\n        /* \"#utility.yul\":6401:6403   */\n      0x20\n        /* \"#utility.yul\":6393:6399   */\n      dup3\n        /* \"#utility.yul\":6390:6404   */\n      lt\n        /* \"#utility.yul\":6370:6388   */\n      dup2\n        /* \"#utility.yul\":6367:6405   */\n      eq\n        /* \"#utility.yul\":6364:6448   */\n      iszero\n      tag_219\n      jumpi\n        /* \"#utility.yul\":6420:6438   */\n      tag_220\n      tag_133\n      jump\t// in\n    tag_220:\n        /* \"#utility.yul\":6364:6448   */\n    tag_219:\n        /* \"#utility.yul\":6185:6454   */\n      pop\n        /* \"#utility.yul\":6134:6454   */\n      swap2\n      swap1\n      pop\n      jump\t// out\n        /* \"#utility.yul\":6460:6634   */\n    tag_134:\n        /* \"#utility.yul\":6600:6626   */\n      0x63616c6c6572206d75737420626520746865206f776e65720000000000000000\n        /* \"#utility.yul\":6596:6597   */\n      0x00\n        /* \"#utility.yul\":6588:6594   */\n      dup3\n        /* \"#utility.yul\":6584:6598   */\n      add\n        /* \"#utility.yul\":6577:6627   */\n      mstore\n        /* \"#utility.yul\":6460:6634   */\n      pop\n      jump\t// out\n        /* \"#utility.yul\":6640:7006   */\n    tag_135:\n        /* \"#utility.yul\":6782:6785   */\n      0x00\n        /* \"#utility.yul\":6803:6870   */\n      tag_223\n        /* \"#utility.yul\":6867:6869   */\n      0x18\n        /* \"#utility.yul\":6862:6865   */\n      dup4\n        /* \"#utility.yul\":6803:6870   */\n      tag_108\n      jump\t// in\n    tag_223:\n        /* \"#utility.yul\":6796:6870   */\n      swap2\n      pop\n        /* \"#utility.yul\":6879:6972   */\n      tag_224\n        /* \"#utility.yul\":6968:6971   */\n      dup3\n        /* \"#utility.yul\":6879:6972   */\n      tag_134\n      jump\t// in\n    tag_224:\n        /* \"#utility.yul\":6997:6999   */\n      0x20\n        /* \"#utility.yul\":6992:6995   */\n      dup3\n        /* \"#utility.yul\":6988:7000   */\n      add\n        /* \"#utility.yul\":6981:7000   */\n      swap1\n      pop\n        /* \"#utility.yul\":6640:7006   */\n      swap2\n      swap1\n      pop\n      jump\t// out\n        /* \"#utility.yul\":7012:7431   */\n    tag_67:\n        /* \"#utility.yul\":7178:7182   */\n      0x00\n        /* \"#utility.yul\":7216:7218   */\n      0x20\n        /* \"#utility.yul\":7205:7214   */\n      dup3\n        /* \"#utility.yul\":7201:7219   */\n      add\n        /* \"#utility.yul\":7193:7219   */\n      swap1\n      pop\n        /* \"#utility.yul\":7265:7274   */\n      dup2\n        /* \"#utility.yul\":7259:7263   */\n      dup2\n        /* \"#utility.yul\":7255:7275   */\n      sub\n        /* \"#utility.yul\":7251:7252   */\n      0x00\n        /* \"#utility.yul\":7240:7249   */\n      dup4\n        /* \"#utility.yul\":7236:7253   */\n      add\n        /* \"#utility.yul\":7229:7276   */\n      mstore\n        /* \"#utility.yul\":7293:7424   */\n      tag_226\n        /* \"#utility.yul\":7419:7423   */\n      dup2\n        /* \"#utility.yul\":7293:7424   */\n      tag_135\n      jump\t// in\n    tag_226:\n        /* \"#utility.yul\":7285:7424   */\n      swap1\n      pop\n        /* \"#utility.yul\":7012:7431   */\n      swap2\n      swap1\n      pop\n      jump\t// out\n        /* \"#utility.yul\":7437:7617   */\n    tag_73:\n        /* \"#utility.yul\":7485:7562   */\n      0x4e487b7100000000000000000000000000000000000000000000000000000000\n        /* \"#utility.yul\":7482:7483   */\n      0x00\n        /* \"#utility.yul\":7475:7563   */\n      mstore\n        /* \"#utility.yul\":7582:7586   */\n      0x32\n        /* \"#utility.yul\":7579:7580   */\n      0x04\n        /* \"#utility.yul\":7572:7587   */\n      mstore\n        /* \"#utility.yul\":7606:7610   */\n      0x24\n        /* \"#utility.yul\":7603:7604   */\n      0x00\n        /* \"#utility.yul\":7596:7611   */\n      revert\n        /* \"#utility.yul\":7623:7955   */\n    tag_77:\n        /* \"#utility.yul\":7744:7748   */\n      0x00\n        /* \"#utility.yul\":7782:7784   */\n      0x40\n        /* \"#utility.yul\":7771:7780   */\n      dup3\n        /* \"#utility.yul\":7767:7785   */\n      add\n        /* \"#utility.yul\":7759:7785   */\n      swap1\n      pop\n        /* \"#utility.yul\":7795:7866   */\n      tag_229\n        /* \"#utility.yul\":7863:7864   */\n      0x00\n        /* \"#utility.yul\":7852:7861   */\n      dup4\n        /* \"#utility.yul\":7848:7865   */\n      add\n        /* \"#utility.yul\":7839:7845   */\n      dup6\n        /* \"#utility.yul\":7795:7866   */\n      tag_130\n      jump\t// in\n    tag_229:\n        /* \"#utility.yul\":7876:7948   */\n      tag_230\n        /* \"#utility.yul\":7944:7946   */\n      0x20\n        /* \"#utility.yul\":7933:7942   */\n      dup4\n        /* \"#utility.yul\":7929:7947   */\n      add\n        /* \"#utility.yul\":7920:7926   */\n      dup5\n        /* \"#utility.yul\":7876:7948   */\n      tag_125\n      jump\t// in\n    tag_230:\n        /* \"#utility.yul\":7623:7955   */\n      swap4\n      swap3\n      pop\n      pop\n      pop\n      jump\t// out\n        /* \"#utility.yul\":7961:8077   */\n    tag_136:\n        /* \"#utility.yul\":8031:8052   */\n      tag_232\n        /* \"#utility.yul\":8046:8051   */\n      dup2\n        /* \"#utility.yul\":8031:8052   */\n      tag_126\n      jump\t// in\n    tag_232:\n        /* \"#utility.yul\":8024:8029   */\n      dup2\n        /* \"#utility.yul\":8021:8053   */\n      eq\n        /* \"#utility.yul\":8011:8071   */\n      tag_233\n      jumpi\n        /* \"#utility.yul\":8067:8068   */\n      0x00\n        /* \"#utility.yul\":8064:8065   */\n      dup1\n        /* \"#utility.yul\":8057:8069   */\n      revert\n        /* \"#utility.yul\":8011:8071   */\n    tag_233:\n        /* \"#utility.yul\":7961:8077   */\n      pop\n      jump\t// out\n        /* \"#utility.yul\":8083:8220   */\n    tag_137:\n        /* \"#utility.yul\":8137:8142   */\n      0x00\n        /* \"#utility.yul\":8168:8174   */\n      dup2\n        /* \"#utility.yul\":8162:8175   */\n      mload\n        /* \"#utility.yul\":8153:8175   */\n      swap1\n      pop\n        /* \"#utility.yul\":8184:8214   */\n      tag_235\n        /* \"#utility.yul\":8208:8213   */\n      dup2\n        /* \"#utility.yul\":8184:8214   */\n      tag_136\n      jump\t// in\n    tag_235:\n        /* \"#utility.yul\":8083:8220   */\n      swap3\n      swap2\n      pop\n      pop\n      jump\t// out\n        /* \"#utility.yul\":8226:8571   */\n    tag_81:\n        /* \"#utility.yul\":8293:8299   */\n      0x00\n        /* \"#utility.yul\":8342:8344   */\n      0x20\n        /* \"#utility.yul\":8330:8339   */\n      dup3\n        /* \"#utility.yul\":8321:8328   */\n      dup5\n        /* \"#utility.yul\":8317:8340   */\n      sub\n        /* \"#utility.yul\":8313:8345   */\n      slt\n        /* \"#utility.yul\":8310:8429   */\n      iszero\n      tag_237\n      jumpi\n        /* \"#utility.yul\":8348:8427   */\n      tag_238\n      tag_119\n      jump\t// in\n    tag_238:\n        /* \"#utility.yul\":8310:8429   */\n    tag_237:\n        /* \"#utility.yul\":8468:8469   */\n      0x00\n        /* \"#utility.yul\":8493:8554   */\n      tag_239\n        /* \"#utility.yul\":8546:8553   */\n      dup5\n        /* \"#utility.yul\":8537:8543   */\n      dup3\n        /* \"#utility.yul\":8526:8535   */\n      dup6\n        /* \"#utility.yul\":8522:8544   */\n      add\n        /* \"#utility.yul\":8493:8554   */\n      tag_137\n      jump\t// in\n    tag_239:\n        /* \"#utility.yul\":8483:8554   */\n      swap2\n      pop\n        /* \"#utility.yul\":8439:8564   */\n      pop\n        /* \"#utility.yul\":8226:8571   */\n      swap3\n      swap2\n      pop\n      pop\n      jump\t// out\n        /* \"#utility.yul\":8577:8757   */\n    tag_138:\n        /* \"#utility.yul\":8625:8702   */\n      0x4e487b7100000000000000000000000000000000000000000000000000000000\n        /* \"#utility.yul\":8622:8623   */\n      0x00\n        /* \"#utility.yul\":8615:8703   */\n      mstore\n        /* \"#utility.yul\":8722:8726   */\n      0x11\n        /* \"#utility.yul\":8719:8720   */\n      0x04\n        /* \"#utility.yul\":8712:8727   */\n      mstore\n        /* \"#utility.yul\":8746:8750   */\n      0x24\n        /* \"#utility.yul\":8743:8744   */\n      0x00\n        /* \"#utility.yul\":8736:8751   */\n      revert\n        /* \"#utility.yul\":8763:8996   */\n    tag_83:\n        /* \"#utility.yul\":8802:8805   */\n      0x00\n        /* \"#utility.yul\":8825:8849   */\n      tag_242\n        /* \"#utility.yul\":8843:8848   */\n      dup3\n        /* \"#utility.yul\":8825:8849   */\n      tag_124\n      jump\t// in\n    tag_242:\n        /* \"#utility.yul\":8816:8849   */\n      swap2\n      pop\n        /* \"#utility.yul\":8871:8937   */\n      0xffffffffffffffffffffffffffffffffffffffffffffffffffffffffffffffff\n        /* \"#utility.yul\":8864:8869   */\n      dup3\n        /* \"#utility.yul\":8861:8938   */\n      eq\n        /* \"#utility.yul\":8858:8961   */\n      iszero\n      tag_243\n      jumpi\n        /* \"#utility.yul\":8941:8959   */\n      tag_244\n      tag_138\n      jump\t// in\n    tag_244:\n        /* \"#utility.yul\":8858:8961   */\n    tag_243:\n        /* \"#utility.yul\":8988:8989   */\n      0x01\n        /* \"#utility.yul\":8981:8986   */\n      dup3\n        /* \"#utility.yul\":8977:8990   */\n      add\n        /* \"#utility.yul\":8970:8990   */\n      swap1\n      pop\n        /* \"#utility.yul\":8763:8996   */\n      swap2\n      swap1\n      pop\n      jump\t// out\n        /* \"#utility.yul\":9002:9170   */\n    tag_139:\n        /* \"#utility.yul\":9142:9162   */\n      0x616d6f756e742063616e6e6f7420626520300000000000000000000000000000\n        /* \"#utility.yul\":9138:9139   */\n      0x00\n        /* \"#utility.yul\":9130:9136   */\n      dup3\n        /* \"#utility.yul\":9126:9140   */\n      add\n        /* \"#utility.yul\":9119:9163   */\n      mstore\n        /* \"#utility.yul\":9002:9170   */\n      pop\n      jump\t// out\n        /* \"#utility.yul\":9176:9542   */\n    tag_140:\n        /* \"#utility.yul\":9318:9321   */\n      0x00\n        /* \"#utility.yul\":9339:9406   */\n      tag_247\n        /* \"#utility.yul\":9403:9405   */\n      0x12\n        /* \"#utility.yul\":9398:9401   */\n      dup4\n        /* \"#utility.yul\":9339:9406   */\n      tag_108\n      jump\t// in\n    tag_247:\n        /* \"#utility.yul\":9332:9406   */\n      swap2\n      pop\n        /* \"#utility.yul\":9415:9508   */\n      tag_248\n        /* \"#utility.yul\":9504:9507   */\n      dup3\n        /* \"#utility.yul\":9415:9508   */\n      tag_139\n      jump\t// in\n    tag_248:\n        /* \"#utility.yul\":9533:9535   */\n      0x20\n        /* \"#utility.yul\":9528:9531   */\n      dup3\n        /* \"#utility.yul\":9524:9536   */\n      add\n        /* \"#utility.yul\":9517:9536   */\n      swap1\n      pop\n        /* \"#utility.yul\":9176:9542   */\n      swap2\n      swap1\n      pop\n      jump\t// out\n        /* \"#utility.yul\":9548:9967   */\n    tag_87:\n        /* \"#utility.yul\":9714:9718   */\n      0x00\n        /* \"#utility.yul\":9752:9754   */\n      0x20\n        /* \"#utility.yul\":9741:9750   */\n      dup3\n        /* \"#utility.yul\":9737:9755   */\n      add\n        /* \"#utility.yul\":9729:9755   */\n      swap1\n      pop\n        /* \"#utility.yul\":9801:9810   */\n      dup2\n        /* \"#utility.yul\":9795:9799   */\n      dup2\n        /* \"#utility.yul\":9791:9811   */\n      sub\n        /* \"#utility.yul\":9787:9788   */\n      0x00\n        /* \"#utility.yul\":9776:9785   */\n      dup4\n        /* \"#utility.yul\":9772:9789   */\n      add\n        /* \"#utility.yul\":9765:9812   */\n      mstore\n        /* \"#utility.yul\":9829:9960   */\n      tag_250\n        /* \"#utility.yul\":9955:9959   */\n      dup2\n        /* \"#utility.yul\":9829:9960   */\n      tag_140\n      jump\t// in\n    tag_250:\n        /* \"#utility.yul\":9821:9960   */\n      swap1\n      pop\n        /* \"#utility.yul\":9548:9967   */\n      swap2\n      swap1\n      pop\n      jump\t// out\n        /* \"#utility.yul\":9973:10415   */\n    tag_89:\n        /* \"#utility.yul\":10122:10126   */\n      0x00\n        /* \"#utility.yul\":10160:10162   */\n      0x60\n        /* \"#utility.yul\":10149:10158   */\n      dup3\n        /* \"#utility.yul\":10145:10163   */\n      add\n        /* \"#utility.yul\":10137:10163   */\n      swap1\n      pop\n        /* \"#utility.yul\":10173:10244   */\n      tag_252\n        /* \"#utility.yul\":10241:10242   */\n      0x00\n        /* \"#utility.yul\":10230:10239   */\n      dup4\n        /* \"#utility.yul\":10226:10243   */\n      add\n        /* \"#utility.yul\":10217:10223   */\n      dup7\n        /* \"#utility.yul\":10173:10244   */\n      tag_130\n      jump\t// in\n    tag_252:\n        /* \"#utility.yul\":10254:10326   */\n      tag_253\n        /* \"#utility.yul\":10322:10324   */\n      0x20\n        /* \"#utility.yul\":10311:10320   */\n      dup4\n        /* \"#utility.yul\":10307:10325   */\n      add\n        /* \"#utility.yul\":10298:10304   */\n      dup6\n        /* \"#utility.yul\":10254:10326   */\n      tag_130\n      jump\t// in\n    tag_253:\n        /* \"#utility.yul\":10336:10408   */\n      tag_254\n        /* \"#utility.yul\":10404:10406   */\n      0x40\n        /* \"#utility.yul\":10393:10402   */\n      dup4\n        /* \"#utility.yul\":10389:10407   */\n      add\n        /* \"#utility.yul\":10380:10386   */\n      dup5\n        /* \"#utility.yul\":10336:10408   */\n      tag_125\n      jump\t// in\n    tag_254:\n        /* \"#utility.yul\":9973:10415   */\n      swap5\n      swap4\n      pop\n      pop\n      pop\n      pop\n      jump\t// out\n        /* \"#utility.yul\":10421:10726   */\n    tag_94:\n        /* \"#utility.yul\":10461:10464   */\n      0x00\n        /* \"#utility.yul\":10480:10500   */\n      tag_256\n        /* \"#utility.yul\":10498:10499   */\n      dup3\n        /* \"#utility.yul\":10480:10500   */\n      tag_124\n      jump\t// in\n    tag_256:\n        /* \"#utility.yul\":10475:10500   */\n      swap2\n      pop\n        /* \"#utility.yul\":10514:10534   */\n      tag_257\n        /* \"#utility.yul\":10532:10533   */\n      dup4\n        /* \"#utility.yul\":10514:10534   */\n      tag_124\n      jump\t// in\n    tag_257:\n        /* \"#utility.yul\":10509:10534   */\n      swap3\n      pop\n        /* \"#utility.yul\":10668:10669   */\n      dup3\n        /* \"#utility.yul\":10600:10666   */\n      0xffffffffffffffffffffffffffffffffffffffffffffffffffffffffffffffff\n        /* \"#utility.yul\":10596:10670   */\n      sub\n        /* \"#utility.yul\":10593:10594   */\n      dup3\n        /* \"#utility.yul\":10590:10671   */\n      gt\n        /* \"#utility.yul\":10587:10694   */\n      iszero\n      tag_258\n      jumpi\n        /* \"#utility.yul\":10674:10692   */\n      tag_259\n      tag_138\n      jump\t// in\n    tag_259:\n        /* \"#utility.yul\":10587:10694   */\n    tag_258:\n        /* \"#utility.yul\":10718:10719   */\n      dup3\n        /* \"#utility.yul\":10715:10716   */\n      dup3\n        /* \"#utility.yul\":10711:10720   */\n      add\n        /* \"#utility.yul\":10704:10720   */\n      swap1\n      pop\n        /* \"#utility.yul\":10421:10726   */\n      swap3\n      swap2\n      pop\n      pop\n      jump\t// out\n        /* \"#utility.yul\":10732:10909   */\n    tag_141:\n        /* \"#utility.yul\":10872:10901   */\n      0x7374616b696e672062616c616e63652063616e6e6f7420626520300000000000\n        /* \"#utility.yul\":10868:10869   */\n      0x00\n        /* \"#utility.yul\":10860:10866   */\n      dup3\n        /* \"#utility.yul\":10856:10870   */\n      add\n        /* \"#utility.yul\":10849:10902   */\n      mstore\n        /* \"#utility.yul\":10732:10909   */\n      pop\n      jump\t// out\n        /* \"#utility.yul\":10915:11281   */\n    tag_142:\n        /* \"#utility.yul\":11057:11060   */\n      0x00\n        /* \"#utility.yul\":11078:11145   */\n      tag_262\n        /* \"#utility.yul\":11142:11144   */\n      0x1b\n        /* \"#utility.yul\":11137:11140   */\n      dup4\n        /* \"#utility.yul\":11078:11145   */\n      tag_108\n      jump\t// in\n    tag_262:\n        /* \"#utility.yul\":11071:11145   */\n      swap2\n      pop\n        /* \"#utility.yul\":11154:11247   */\n      tag_263\n        /* \"#utility.yul\":11243:11246   */\n      dup3\n        /* \"#utility.yul\":11154:11247   */\n      tag_141\n      jump\t// in\n    tag_263:\n        /* \"#utility.yul\":11272:11274   */\n      0x20\n        /* \"#utility.yul\":11267:11270   */\n      dup3\n        /* \"#utility.yul\":11263:11275   */\n      add\n        /* \"#utility.yul\":11256:11275   */\n      swap1\n      pop\n        /* \"#utility.yul\":10915:11281   */\n      swap2\n      swap1\n      pop\n      jump\t// out\n        /* \"#utility.yul\":11287:11706   */\n    tag_100:\n        /* \"#utility.yul\":11453:11457   */\n      0x00\n        /* \"#utility.yul\":11491:11493   */\n      0x20\n        /* \"#utility.yul\":11480:11489   */\n      dup3\n        /* \"#utility.yul\":11476:11494   */\n      add\n        /* \"#utility.yul\":11468:11494   */\n      swap1\n      pop\n        /* \"#utility.yul\":11540:11549   */\n      dup2\n        /* \"#utility.yul\":11534:11538   */\n      dup2\n        /* \"#utility.yul\":11530:11550   */\n      sub\n        /* \"#utility.yul\":11526:11527   */\n      0x00\n        /* \"#utility.yul\":11515:11524   */\n      dup4\n        /* \"#utility.yul\":11511:11528   */\n      add\n        /* \"#utility.yul\":11504:11551   */\n      mstore\n        /* \"#utility.yul\":11568:11699   */\n      tag_265\n        /* \"#utility.yul\":11694:11698   */\n      dup2\n        /* \"#utility.yul\":11568:11699   */\n      tag_142\n      jump\t// in\n    tag_265:\n        /* \"#utility.yul\":11560:11699   */\n      swap1\n      pop\n        /* \"#utility.yul\":11287:11706   */\n      swap2\n      swap1\n      pop\n      jump\t// out\n\n    auxdata: 0xa2646970667358221220a7dfe61a8ff65419eca49381bbf59e5f2624daa53d520f30a04fb9704c6cd9aa64736f6c634300080c0033\n}\n",
				"bytecode": {
					"linkReferences": {},
					"object": "60806040526040518060400160405280600f81526020017f4461707020546f6b656e204661726d0000000000000000000000000000000000815250600090805190602001906200005192919062000150565b503480156200005f57600080fd5b5060405162001439380380620014398339818101604052810190620000859190620002c3565b81600260006101000a81548173ffffffffffffffffffffffffffffffffffffffff021916908373ffffffffffffffffffffffffffffffffffffffff16021790555080600360006101000a81548173ffffffffffffffffffffffffffffffffffffffff021916908373ffffffffffffffffffffffffffffffffffffffff16021790555033600160006101000a81548173ffffffffffffffffffffffffffffffffffffffff021916908373ffffffffffffffffffffffffffffffffffffffff16021790555050506200036f565b8280546200015e9062000339565b90600052602060002090601f016020900481019282620001825760008555620001ce565b82601f106200019d57805160ff1916838001178555620001ce565b82800160010185558215620001ce579182015b82811115620001cd578251825591602001919060010190620001b0565b5b509050620001dd9190620001e1565b5090565b5b80821115620001fc576000816000905550600101620001e2565b5090565b600080fd5b600073ffffffffffffffffffffffffffffffffffffffff82169050919050565b6000620002328262000205565b9050919050565b6000620002468262000225565b9050919050565b620002588162000239565b81146200026457600080fd5b50565b60008151905062000278816200024d565b92915050565b60006200028b8262000225565b9050919050565b6200029d816200027e565b8114620002a957600080fd5b50565b600081519050620002bd8162000292565b92915050565b60008060408385031215620002dd57620002dc62000200565b5b6000620002ed8582860162000267565b92505060206200030085828601620002ac565b9150509250929050565b7f4e487b7100000000000000000000000000000000000000000000000000000000600052602260045260246000fd5b600060028204905060018216806200035257607f821691505b602082108114156200036957620003686200030a565b5b50919050565b6110ba806200037f6000396000f3fe608060405234801561001057600080fd5b50600436106100a95760003560e01c80637547c7a3116100715780637547c7a3146101545780638da5cb5b14610170578063a5ce413b1461018e578063c93c8f3414610198578063f7c618c1146101c8578063fd5e6dd1146101e6576100a9565b806306fdde03146100ae5780631ea3626a146100cc57806345bc78ab146100ea57806360ab58521461011a5780636f49712b14610124575b600080fd5b6100b6610216565b6040516100c39190610ad4565b60405180910390f35b6100d46102a4565b6040516100e19190610b75565b60405180910390f35b61010460048036038101906100ff9190610bd3565b6102ca565b6040516101119190610c19565b60405180910390f35b6101226102e2565b005b61013e60048036038101906101399190610bd3565b6104cc565b60405161014b9190610c4f565b60405180910390f35b61016e60048036038101906101699190610c96565b6104ec565b005b6101786107c8565b6040516101859190610cd2565b60405180910390f35b6101966107ee565b005b6101b260048036038101906101ad9190610bd3565b6109b6565b6040516101bf9190610c4f565b60405180910390f35b6101d06109d6565b6040516101dd9190610d0e565b60405180910390f35b61020060048036038101906101fb9190610c96565b6109fc565b60405161020d9190610cd2565b60405180910390f35b6000805461022390610d58565b80601f016020809104026020016040519081016040528092919081815260200182805461024f90610d58565b801561029c5780601f106102715761010080835404028352916020019161029c565b820191906000526020600020905b81548152906001019060200180831161027f57829003601f168201915b505050505081565b600260009054906101000a900473ffffffffffffffffffffffffffffffffffffffff1681565b60056020528060005260406000206000915090505481565b600160009054906101000a900473ffffffffffffffffffffffffffffffffffffffff1673ffffffffffffffffffffffffffffffffffffffff163373ffffffffffffffffffffffffffffffffffffffff1614610372576040517f08c379a000000000000000000000000000000000000000000000000000000000815260040161036990610dd6565b60405180910390fd5b60005b6004805490508110156104c95760006004828154811061039857610397610df6565b5b9060005260206000200160009054906101000a900473ffffffffffffffffffffffffffffffffffffffff1690506000600560008373ffffffffffffffffffffffffffffffffffffffff1673ffffffffffffffffffffffffffffffffffffffff16815260200190815260200160002054905060008111156104b457600260009054906101000a900473ffffffffffffffffffffffffffffffffffffffff1673ffffffffffffffffffffffffffffffffffffffff1663a9059cbb83836040518363ffffffff1660e01b815260040161046f929190610e25565b6020604051808303816000875af115801561048e573d6000803e3d6000fd5b505050506040513d601f19601f820116820180604052508101906104b29190610e7a565b505b505080806104c190610ed6565b915050610375565b50565b60076020528060005260406000206000915054906101000a900460ff1681565b6000811161052f576040517f08c379a000000000000000000000000000000000000000000000000000000000815260040161052690610f6b565b60405180910390fd5b600360009054906101000a900473ffffffffffffffffffffffffffffffffffffffff1673ffffffffffffffffffffffffffffffffffffffff166323b872dd3330846040518463ffffffff1660e01b815260040161058e93929190610f8b565b6020604051808303816000875af11580156105ad573d6000803e3d6000fd5b505050506040513d601f19601f820116820180604052508101906105d19190610e7a565b5080600560003373ffffffffffffffffffffffffffffffffffffffff1673ffffffffffffffffffffffffffffffffffffffff1681526020019081526020016000205461061d9190610fc2565b600560003373ffffffffffffffffffffffffffffffffffffffff1673ffffffffffffffffffffffffffffffffffffffff16815260200190815260200160002081905550600660003373ffffffffffffffffffffffffffffffffffffffff1673ffffffffffffffffffffffffffffffffffffffff16815260200190815260200160002060009054906101000a900460ff16610715576004339080600181540180825580915050600190039060005260206000200160009091909190916101000a81548173ffffffffffffffffffffffffffffffffffffffff021916908373ffffffffffffffffffffffffffffffffffffffff1602179055505b6001600760003373ffffffffffffffffffffffffffffffffffffffff1673ffffffffffffffffffffffffffffffffffffffff16815260200190815260200160002060006101000a81548160ff0219169083151502179055506001600660003373ffffffffffffffffffffffffffffffffffffffff1673ffffffffffffffffffffffffffffffffffffffff16815260200190815260200160002060006101000a81548160ff02191690831515021790555050565b600160009054906101000a900473ffffffffffffffffffffffffffffffffffffffff1681565b6000600560003373ffffffffffffffffffffffffffffffffffffffff1673ffffffffffffffffffffffffffffffffffffffff16815260200190815260200160002054905060008111610875576040517f08c379a000000000000000000000000000000000000000000000000000000000815260040161086c90611064565b60405180910390fd5b600360009054906101000a900473ffffffffffffffffffffffffffffffffffffffff1673ffffffffffffffffffffffffffffffffffffffff1663a9059cbb33836040518363ffffffff1660e01b81526004016108d2929190610e25565b6020604051808303816000875af11580156108f1573d6000803e3d6000fd5b505050506040513d601f19601f820116820180604052508101906109159190610e7a565b506000600560003373ffffffffffffffffffffffffffffffffffffffff1673ffffffffffffffffffffffffffffffffffffffff168152602001908152602001600020819055506000600760003373ffffffffffffffffffffffffffffffffffffffff1673ffffffffffffffffffffffffffffffffffffffff16815260200190815260200160002060006101000a81548160ff02191690831515021790555050565b60066020528060005260406000206000915054906101000a900460ff1681565b600360009054906101000a900473ffffffffffffffffffffffffffffffffffffffff1681565b60048181548110610a0c57600080fd5b906000526020600020016000915054906101000a900473ffffffffffffffffffffffffffffffffffffffff1681565b600081519050919050565b600082825260208201905092915050565b60005b83811015610a75578082015181840152602081019050610a5a565b83811115610a84576000848401525b50505050565b6000601f19601f8301169050919050565b6000610aa682610a3b565b610ab08185610a46565b9350610ac0818560208601610a57565b610ac981610a8a565b840191505092915050565b60006020820190508181036000830152610aee8184610a9b565b905092915050565b600073ffffffffffffffffffffffffffffffffffffffff82169050919050565b6000819050919050565b6000610b3b610b36610b3184610af6565b610b16565b610af6565b9050919050565b6000610b4d82610b20565b9050919050565b6000610b5f82610b42565b9050919050565b610b6f81610b54565b82525050565b6000602082019050610b8a6000830184610b66565b92915050565b600080fd5b6000610ba082610af6565b9050919050565b610bb081610b95565b8114610bbb57600080fd5b50565b600081359050610bcd81610ba7565b92915050565b600060208284031215610be957610be8610b90565b5b6000610bf784828501610bbe565b91505092915050565b6000819050919050565b610c1381610c00565b82525050565b6000602082019050610c2e6000830184610c0a565b92915050565b60008115159050919050565b610c4981610c34565b82525050565b6000602082019050610c646000830184610c40565b92915050565b610c7381610c00565b8114610c7e57600080fd5b50565b600081359050610c9081610c6a565b92915050565b600060208284031215610cac57610cab610b90565b5b6000610cba84828501610c81565b91505092915050565b610ccc81610b95565b82525050565b6000602082019050610ce76000830184610cc3565b92915050565b6000610cf882610b42565b9050919050565b610d0881610ced565b82525050565b6000602082019050610d236000830184610cff565b92915050565b7f4e487b7100000000000000000000000000000000000000000000000000000000600052602260045260246000fd5b60006002820490506001821680610d7057607f821691505b60208210811415610d8457610d83610d29565b5b50919050565b7f63616c6c6572206d75737420626520746865206f776e65720000000000000000600082015250565b6000610dc0601883610a46565b9150610dcb82610d8a565b602082019050919050565b60006020820190508181036000830152610def81610db3565b9050919050565b7f4e487b7100000000000000000000000000000000000000000000000000000000600052603260045260246000fd5b6000604082019050610e3a6000830185610cc3565b610e476020830184610c0a565b9392505050565b610e5781610c34565b8114610e6257600080fd5b50565b600081519050610e7481610e4e565b92915050565b600060208284031215610e9057610e8f610b90565b5b6000610e9e84828501610e65565b91505092915050565b7f4e487b7100000000000000000000000000000000000000000000000000000000600052601160045260246000fd5b6000610ee182610c00565b91507fffffffffffffffffffffffffffffffffffffffffffffffffffffffffffffffff821415610f1457610f13610ea7565b5b600182019050919050565b7f616d6f756e742063616e6e6f7420626520300000000000000000000000000000600082015250565b6000610f55601283610a46565b9150610f6082610f1f565b602082019050919050565b60006020820190508181036000830152610f8481610f48565b9050919050565b6000606082019050610fa06000830186610cc3565b610fad6020830185610cc3565b610fba6040830184610c0a565b949350505050565b6000610fcd82610c00565b9150610fd883610c00565b9250827fffffffffffffffffffffffffffffffffffffffffffffffffffffffffffffffff0382111561100d5761100c610ea7565b5b828201905092915050565b7f7374616b696e672062616c616e63652063616e6e6f7420626520300000000000600082015250565b600061104e601b83610a46565b915061105982611018565b602082019050919050565b6000602082019050818103600083015261107d81611041565b905091905056fea2646970667358221220a7dfe61a8ff65419eca49381bbf59e5f2624daa53d520f30a04fb9704c6cd9aa64736f6c634300080c0033",
					"opcodes": "PUSH1 0x80 PUSH1 0x40 MSTORE PUSH1 0x40 MLOAD DUP1 PUSH1 0x40 ADD PUSH1 0x40 MSTORE DUP1 PUSH1 0xF DUP2 MSTORE PUSH1 0x20 ADD PUSH32 0x4461707020546F6B656E204661726D0000000000000000000000000000000000 DUP2 MSTORE POP PUSH1 0x0 SWAP1 DUP1 MLOAD SWAP1 PUSH1 0x20 ADD SWAP1 PUSH3 0x51 SWAP3 SWAP2 SWAP1 PUSH3 0x150 JUMP JUMPDEST POP CALLVALUE DUP1 ISZERO PUSH3 0x5F JUMPI PUSH1 0x0 DUP1 REVERT JUMPDEST POP PUSH1 0x40 MLOAD PUSH3 0x1439 CODESIZE SUB DUP1 PUSH3 0x1439 DUP4 CODECOPY DUP2 DUP2 ADD PUSH1 0x40 MSTORE DUP2 ADD SWAP1 PUSH3 0x85 SWAP2 SWAP1 PUSH3 0x2C3 JUMP JUMPDEST DUP2 PUSH1 0x2 PUSH1 0x0 PUSH2 0x100 EXP DUP2 SLOAD DUP2 PUSH20 0xFFFFFFFFFFFFFFFFFFFFFFFFFFFFFFFFFFFFFFFF MUL NOT AND SWAP1 DUP4 PUSH20 0xFFFFFFFFFFFFFFFFFFFFFFFFFFFFFFFFFFFFFFFF AND MUL OR SWAP1 SSTORE POP DUP1 PUSH1 0x3 PUSH1 0x0 PUSH2 0x100 EXP DUP2 SLOAD DUP2 PUSH20 0xFFFFFFFFFFFFFFFFFFFFFFFFFFFFFFFFFFFFFFFF MUL NOT AND SWAP1 DUP4 PUSH20 0xFFFFFFFFFFFFFFFFFFFFFFFFFFFFFFFFFFFFFFFF AND MUL OR SWAP1 SSTORE POP CALLER PUSH1 0x1 PUSH1 0x0 PUSH2 0x100 EXP DUP2 SLOAD DUP2 PUSH20 0xFFFFFFFFFFFFFFFFFFFFFFFFFFFFFFFFFFFFFFFF MUL NOT AND SWAP1 DUP4 PUSH20 0xFFFFFFFFFFFFFFFFFFFFFFFFFFFFFFFFFFFFFFFF AND MUL OR SWAP1 SSTORE POP POP POP PUSH3 0x36F JUMP JUMPDEST DUP3 DUP1 SLOAD PUSH3 0x15E SWAP1 PUSH3 0x339 JUMP JUMPDEST SWAP1 PUSH1 0x0 MSTORE PUSH1 0x20 PUSH1 0x0 KECCAK256 SWAP1 PUSH1 0x1F ADD PUSH1 0x20 SWAP1 DIV DUP2 ADD SWAP3 DUP3 PUSH3 0x182 JUMPI PUSH1 0x0 DUP6 SSTORE PUSH3 0x1CE JUMP JUMPDEST DUP3 PUSH1 0x1F LT PUSH3 0x19D JUMPI DUP1 MLOAD PUSH1 0xFF NOT AND DUP4 DUP1 ADD OR DUP6 SSTORE PUSH3 0x1CE JUMP JUMPDEST DUP3 DUP1 ADD PUSH1 0x1 ADD DUP6 SSTORE DUP3 ISZERO PUSH3 0x1CE JUMPI SWAP2 DUP3 ADD JUMPDEST DUP3 DUP2 GT ISZERO PUSH3 0x1CD JUMPI DUP3 MLOAD DUP3 SSTORE SWAP2 PUSH1 0x20 ADD SWAP2 SWAP1 PUSH1 0x1 ADD SWAP1 PUSH3 0x1B0 JUMP JUMPDEST JUMPDEST POP SWAP1 POP PUSH3 0x1DD SWAP2 SWAP1 PUSH3 0x1E1 JUMP JUMPDEST POP SWAP1 JUMP JUMPDEST JUMPDEST DUP1 DUP3 GT ISZERO PUSH3 0x1FC JUMPI PUSH1 0x0 DUP2 PUSH1 0x0 SWAP1 SSTORE POP PUSH1 0x1 ADD PUSH3 0x1E2 JUMP JUMPDEST POP SWAP1 JUMP JUMPDEST PUSH1 0x0 DUP1 REVERT JUMPDEST PUSH1 0x0 PUSH20 0xFFFFFFFFFFFFFFFFFFFFFFFFFFFFFFFFFFFFFFFF DUP3 AND SWAP1 POP SWAP2 SWAP1 POP JUMP JUMPDEST PUSH1 0x0 PUSH3 0x232 DUP3 PUSH3 0x205 JUMP JUMPDEST SWAP1 POP SWAP2 SWAP1 POP JUMP JUMPDEST PUSH1 0x0 PUSH3 0x246 DUP3 PUSH3 0x225 JUMP JUMPDEST SWAP1 POP SWAP2 SWAP1 POP JUMP JUMPDEST PUSH3 0x258 DUP2 PUSH3 0x239 JUMP JUMPDEST DUP2 EQ PUSH3 0x264 JUMPI PUSH1 0x0 DUP1 REVERT JUMPDEST POP JUMP JUMPDEST PUSH1 0x0 DUP2 MLOAD SWAP1 POP PUSH3 0x278 DUP2 PUSH3 0x24D JUMP JUMPDEST SWAP3 SWAP2 POP POP JUMP JUMPDEST PUSH1 0x0 PUSH3 0x28B DUP3 PUSH3 0x225 JUMP JUMPDEST SWAP1 POP SWAP2 SWAP1 POP JUMP JUMPDEST PUSH3 0x29D DUP2 PUSH3 0x27E JUMP JUMPDEST DUP2 EQ PUSH3 0x2A9 JUMPI PUSH1 0x0 DUP1 REVERT JUMPDEST POP JUMP JUMPDEST PUSH1 0x0 DUP2 MLOAD SWAP1 POP PUSH3 0x2BD DUP2 PUSH3 0x292 JUMP JUMPDEST SWAP3 SWAP2 POP POP JUMP JUMPDEST PUSH1 0x0 DUP1 PUSH1 0x40 DUP4 DUP6 SUB SLT ISZERO PUSH3 0x2DD JUMPI PUSH3 0x2DC PUSH3 0x200 JUMP JUMPDEST JUMPDEST PUSH1 0x0 PUSH3 0x2ED DUP6 DUP3 DUP7 ADD PUSH3 0x267 JUMP JUMPDEST SWAP3 POP POP PUSH1 0x20 PUSH3 0x300 DUP6 DUP3 DUP7 ADD PUSH3 0x2AC JUMP JUMPDEST SWAP2 POP POP SWAP3 POP SWAP3 SWAP1 POP JUMP JUMPDEST PUSH32 0x4E487B7100000000000000000000000000000000000000000000000000000000 PUSH1 0x0 MSTORE PUSH1 0x22 PUSH1 0x4 MSTORE PUSH1 0x24 PUSH1 0x0 REVERT JUMPDEST PUSH1 0x0 PUSH1 0x2 DUP3 DIV SWAP1 POP PUSH1 0x1 DUP3 AND DUP1 PUSH3 0x352 JUMPI PUSH1 0x7F DUP3 AND SWAP2 POP JUMPDEST PUSH1 0x20 DUP3 LT DUP2 EQ ISZERO PUSH3 0x369 JUMPI PUSH3 0x368 PUSH3 0x30A JUMP JUMPDEST JUMPDEST POP SWAP2 SWAP1 POP JUMP JUMPDEST PUSH2 0x10BA DUP1 PUSH3 0x37F PUSH1 0x0 CODECOPY PUSH1 0x0 RETURN INVALID PUSH1 0x80 PUSH1 0x40 MSTORE CALLVALUE DUP1 ISZERO PUSH2 0x10 JUMPI PUSH1 0x0 DUP1 REVERT JUMPDEST POP PUSH1 0x4 CALLDATASIZE LT PUSH2 0xA9 JUMPI PUSH1 0x0 CALLDATALOAD PUSH1 0xE0 SHR DUP1 PUSH4 0x7547C7A3 GT PUSH2 0x71 JUMPI DUP1 PUSH4 0x7547C7A3 EQ PUSH2 0x154 JUMPI DUP1 PUSH4 0x8DA5CB5B EQ PUSH2 0x170 JUMPI DUP1 PUSH4 0xA5CE413B EQ PUSH2 0x18E JUMPI DUP1 PUSH4 0xC93C8F34 EQ PUSH2 0x198 JUMPI DUP1 PUSH4 0xF7C618C1 EQ PUSH2 0x1C8 JUMPI DUP1 PUSH4 0xFD5E6DD1 EQ PUSH2 0x1E6 JUMPI PUSH2 0xA9 JUMP JUMPDEST DUP1 PUSH4 0x6FDDE03 EQ PUSH2 0xAE JUMPI DUP1 PUSH4 0x1EA3626A EQ PUSH2 0xCC JUMPI DUP1 PUSH4 0x45BC78AB EQ PUSH2 0xEA JUMPI DUP1 PUSH4 0x60AB5852 EQ PUSH2 0x11A JUMPI DUP1 PUSH4 0x6F49712B EQ PUSH2 0x124 JUMPI JUMPDEST PUSH1 0x0 DUP1 REVERT JUMPDEST PUSH2 0xB6 PUSH2 0x216 JUMP JUMPDEST PUSH1 0x40 MLOAD PUSH2 0xC3 SWAP2 SWAP1 PUSH2 0xAD4 JUMP JUMPDEST PUSH1 0x40 MLOAD DUP1 SWAP2 SUB SWAP1 RETURN JUMPDEST PUSH2 0xD4 PUSH2 0x2A4 JUMP JUMPDEST PUSH1 0x40 MLOAD PUSH2 0xE1 SWAP2 SWAP1 PUSH2 0xB75 JUMP JUMPDEST PUSH1 0x40 MLOAD DUP1 SWAP2 SUB SWAP1 RETURN JUMPDEST PUSH2 0x104 PUSH1 0x4 DUP1 CALLDATASIZE SUB DUP2 ADD SWAP1 PUSH2 0xFF SWAP2 SWAP1 PUSH2 0xBD3 JUMP JUMPDEST PUSH2 0x2CA JUMP JUMPDEST PUSH1 0x40 MLOAD PUSH2 0x111 SWAP2 SWAP1 PUSH2 0xC19 JUMP JUMPDEST PUSH1 0x40 MLOAD DUP1 SWAP2 SUB SWAP1 RETURN JUMPDEST PUSH2 0x122 PUSH2 0x2E2 JUMP JUMPDEST STOP JUMPDEST PUSH2 0x13E PUSH1 0x4 DUP1 CALLDATASIZE SUB DUP2 ADD SWAP1 PUSH2 0x139 SWAP2 SWAP1 PUSH2 0xBD3 JUMP JUMPDEST PUSH2 0x4CC JUMP JUMPDEST PUSH1 0x40 MLOAD PUSH2 0x14B SWAP2 SWAP1 PUSH2 0xC4F JUMP JUMPDEST PUSH1 0x40 MLOAD DUP1 SWAP2 SUB SWAP1 RETURN JUMPDEST PUSH2 0x16E PUSH1 0x4 DUP1 CALLDATASIZE SUB DUP2 ADD SWAP1 PUSH2 0x169 SWAP2 SWAP1 PUSH2 0xC96 JUMP JUMPDEST PUSH2 0x4EC JUMP JUMPDEST STOP JUMPDEST PUSH2 0x178 PUSH2 0x7C8 JUMP JUMPDEST PUSH1 0x40 MLOAD PUSH2 0x185 SWAP2 SWAP1 PUSH2 0xCD2 JUMP JUMPDEST PUSH1 0x40 MLOAD DUP1 SWAP2 SUB SWAP1 RETURN JUMPDEST PUSH2 0x196 PUSH2 0x7EE JUMP JUMPDEST STOP JUMPDEST PUSH2 0x1B2 PUSH1 0x4 DUP1 CALLDATASIZE SUB DUP2 ADD SWAP1 PUSH2 0x1AD SWAP2 SWAP1 PUSH2 0xBD3 JUMP JUMPDEST PUSH2 0x9B6 JUMP JUMPDEST PUSH1 0x40 MLOAD PUSH2 0x1BF SWAP2 SWAP1 PUSH2 0xC4F JUMP JUMPDEST PUSH1 0x40 MLOAD DUP1 SWAP2 SUB SWAP1 RETURN JUMPDEST PUSH2 0x1D0 PUSH2 0x9D6 JUMP JUMPDEST PUSH1 0x40 MLOAD PUSH2 0x1DD SWAP2 SWAP1 PUSH2 0xD0E JUMP JUMPDEST PUSH1 0x40 MLOAD DUP1 SWAP2 SUB SWAP1 RETURN JUMPDEST PUSH2 0x200 PUSH1 0x4 DUP1 CALLDATASIZE SUB DUP2 ADD SWAP1 PUSH2 0x1FB SWAP2 SWAP1 PUSH2 0xC96 JUMP JUMPDEST PUSH2 0x9FC JUMP JUMPDEST PUSH1 0x40 MLOAD PUSH2 0x20D SWAP2 SWAP1 PUSH2 0xCD2 JUMP JUMPDEST PUSH1 0x40 MLOAD DUP1 SWAP2 SUB SWAP1 RETURN JUMPDEST PUSH1 0x0 DUP1 SLOAD PUSH2 0x223 SWAP1 PUSH2 0xD58 JUMP JUMPDEST DUP1 PUSH1 0x1F ADD PUSH1 0x20 DUP1 SWAP2 DIV MUL PUSH1 0x20 ADD PUSH1 0x40 MLOAD SWAP1 DUP2 ADD PUSH1 0x40 MSTORE DUP1 SWAP3 SWAP2 SWAP1 DUP2 DUP2 MSTORE PUSH1 0x20 ADD DUP3 DUP1 SLOAD PUSH2 0x24F SWAP1 PUSH2 0xD58 JUMP JUMPDEST DUP1 ISZERO PUSH2 0x29C JUMPI DUP1 PUSH1 0x1F LT PUSH2 0x271 JUMPI PUSH2 0x100 DUP1 DUP4 SLOAD DIV MUL DUP4 MSTORE SWAP2 PUSH1 0x20 ADD SWAP2 PUSH2 0x29C JUMP JUMPDEST DUP3 ADD SWAP2 SWAP1 PUSH1 0x0 MSTORE PUSH1 0x20 PUSH1 0x0 KECCAK256 SWAP1 JUMPDEST DUP2 SLOAD DUP2 MSTORE SWAP1 PUSH1 0x1 ADD SWAP1 PUSH1 0x20 ADD DUP1 DUP4 GT PUSH2 0x27F JUMPI DUP3 SWAP1 SUB PUSH1 0x1F AND DUP3 ADD SWAP2 JUMPDEST POP POP POP POP POP DUP2 JUMP JUMPDEST PUSH1 0x2 PUSH1 0x0 SWAP1 SLOAD SWAP1 PUSH2 0x100 EXP SWAP1 DIV PUSH20 0xFFFFFFFFFFFFFFFFFFFFFFFFFFFFFFFFFFFFFFFF AND DUP2 JUMP JUMPDEST PUSH1 0x5 PUSH1 0x20 MSTORE DUP1 PUSH1 0x0 MSTORE PUSH1 0x40 PUSH1 0x0 KECCAK256 PUSH1 0x0 SWAP2 POP SWAP1 POP SLOAD DUP2 JUMP JUMPDEST PUSH1 0x1 PUSH1 0x0 SWAP1 SLOAD SWAP1 PUSH2 0x100 EXP SWAP1 DIV PUSH20 0xFFFFFFFFFFFFFFFFFFFFFFFFFFFFFFFFFFFFFFFF AND PUSH20 0xFFFFFFFFFFFFFFFFFFFFFFFFFFFFFFFFFFFFFFFF AND CALLER PUSH20 0xFFFFFFFFFFFFFFFFFFFFFFFFFFFFFFFFFFFFFFFF AND EQ PUSH2 0x372 JUMPI PUSH1 0x40 MLOAD PUSH32 0x8C379A000000000000000000000000000000000000000000000000000000000 DUP2 MSTORE PUSH1 0x4 ADD PUSH2 0x369 SWAP1 PUSH2 0xDD6 JUMP JUMPDEST PUSH1 0x40 MLOAD DUP1 SWAP2 SUB SWAP1 REVERT JUMPDEST PUSH1 0x0 JUMPDEST PUSH1 0x4 DUP1 SLOAD SWAP1 POP DUP2 LT ISZERO PUSH2 0x4C9 JUMPI PUSH1 0x0 PUSH1 0x4 DUP3 DUP2 SLOAD DUP2 LT PUSH2 0x398 JUMPI PUSH2 0x397 PUSH2 0xDF6 JUMP JUMPDEST JUMPDEST SWAP1 PUSH1 0x0 MSTORE PUSH1 0x20 PUSH1 0x0 KECCAK256 ADD PUSH1 0x0 SWAP1 SLOAD SWAP1 PUSH2 0x100 EXP SWAP1 DIV PUSH20 0xFFFFFFFFFFFFFFFFFFFFFFFFFFFFFFFFFFFFFFFF AND SWAP1 POP PUSH1 0x0 PUSH1 0x5 PUSH1 0x0 DUP4 PUSH20 0xFFFFFFFFFFFFFFFFFFFFFFFFFFFFFFFFFFFFFFFF AND PUSH20 0xFFFFFFFFFFFFFFFFFFFFFFFFFFFFFFFFFFFFFFFF AND DUP2 MSTORE PUSH1 0x20 ADD SWAP1 DUP2 MSTORE PUSH1 0x20 ADD PUSH1 0x0 KECCAK256 SLOAD SWAP1 POP PUSH1 0x0 DUP2 GT ISZERO PUSH2 0x4B4 JUMPI PUSH1 0x2 PUSH1 0x0 SWAP1 SLOAD SWAP1 PUSH2 0x100 EXP SWAP1 DIV PUSH20 0xFFFFFFFFFFFFFFFFFFFFFFFFFFFFFFFFFFFFFFFF AND PUSH20 0xFFFFFFFFFFFFFFFFFFFFFFFFFFFFFFFFFFFFFFFF AND PUSH4 0xA9059CBB DUP4 DUP4 PUSH1 0x40 MLOAD DUP4 PUSH4 0xFFFFFFFF AND PUSH1 0xE0 SHL DUP2 MSTORE PUSH1 0x4 ADD PUSH2 0x46F SWAP3 SWAP2 SWAP1 PUSH2 0xE25 JUMP JUMPDEST PUSH1 0x20 PUSH1 0x40 MLOAD DUP1 DUP4 SUB DUP2 PUSH1 0x0 DUP8 GAS CALL ISZERO DUP1 ISZERO PUSH2 0x48E JUMPI RETURNDATASIZE PUSH1 0x0 DUP1 RETURNDATACOPY RETURNDATASIZE PUSH1 0x0 REVERT JUMPDEST POP POP POP POP PUSH1 0x40 MLOAD RETURNDATASIZE PUSH1 0x1F NOT PUSH1 0x1F DUP3 ADD AND DUP3 ADD DUP1 PUSH1 0x40 MSTORE POP DUP2 ADD SWAP1 PUSH2 0x4B2 SWAP2 SWAP1 PUSH2 0xE7A JUMP JUMPDEST POP JUMPDEST POP POP DUP1 DUP1 PUSH2 0x4C1 SWAP1 PUSH2 0xED6 JUMP JUMPDEST SWAP2 POP POP PUSH2 0x375 JUMP JUMPDEST POP JUMP JUMPDEST PUSH1 0x7 PUSH1 0x20 MSTORE DUP1 PUSH1 0x0 MSTORE PUSH1 0x40 PUSH1 0x0 KECCAK256 PUSH1 0x0 SWAP2 POP SLOAD SWAP1 PUSH2 0x100 EXP SWAP1 DIV PUSH1 0xFF AND DUP2 JUMP JUMPDEST PUSH1 0x0 DUP2 GT PUSH2 0x52F JUMPI PUSH1 0x40 MLOAD PUSH32 0x8C379A000000000000000000000000000000000000000000000000000000000 DUP2 MSTORE PUSH1 0x4 ADD PUSH2 0x526 SWAP1 PUSH2 0xF6B JUMP JUMPDEST PUSH1 0x40 MLOAD DUP1 SWAP2 SUB SWAP1 REVERT JUMPDEST PUSH1 0x3 PUSH1 0x0 SWAP1 SLOAD SWAP1 PUSH2 0x100 EXP SWAP1 DIV PUSH20 0xFFFFFFFFFFFFFFFFFFFFFFFFFFFFFFFFFFFFFFFF AND PUSH20 0xFFFFFFFFFFFFFFFFFFFFFFFFFFFFFFFFFFFFFFFF AND PUSH4 0x23B872DD CALLER ADDRESS DUP5 PUSH1 0x40 MLOAD DUP5 PUSH4 0xFFFFFFFF AND PUSH1 0xE0 SHL DUP2 MSTORE PUSH1 0x4 ADD PUSH2 0x58E SWAP4 SWAP3 SWAP2 SWAP1 PUSH2 0xF8B JUMP JUMPDEST PUSH1 0x20 PUSH1 0x40 MLOAD DUP1 DUP4 SUB DUP2 PUSH1 0x0 DUP8 GAS CALL ISZERO DUP1 ISZERO PUSH2 0x5AD JUMPI RETURNDATASIZE PUSH1 0x0 DUP1 RETURNDATACOPY RETURNDATASIZE PUSH1 0x0 REVERT JUMPDEST POP POP POP POP PUSH1 0x40 MLOAD RETURNDATASIZE PUSH1 0x1F NOT PUSH1 0x1F DUP3 ADD AND DUP3 ADD DUP1 PUSH1 0x40 MSTORE POP DUP2 ADD SWAP1 PUSH2 0x5D1 SWAP2 SWAP1 PUSH2 0xE7A JUMP JUMPDEST POP DUP1 PUSH1 0x5 PUSH1 0x0 CALLER PUSH20 0xFFFFFFFFFFFFFFFFFFFFFFFFFFFFFFFFFFFFFFFF AND PUSH20 0xFFFFFFFFFFFFFFFFFFFFFFFFFFFFFFFFFFFFFFFF AND DUP2 MSTORE PUSH1 0x20 ADD SWAP1 DUP2 MSTORE PUSH1 0x20 ADD PUSH1 0x0 KECCAK256 SLOAD PUSH2 0x61D SWAP2 SWAP1 PUSH2 0xFC2 JUMP JUMPDEST PUSH1 0x5 PUSH1 0x0 CALLER PUSH20 0xFFFFFFFFFFFFFFFFFFFFFFFFFFFFFFFFFFFFFFFF AND PUSH20 0xFFFFFFFFFFFFFFFFFFFFFFFFFFFFFFFFFFFFFFFF AND DUP2 MSTORE PUSH1 0x20 ADD SWAP1 DUP2 MSTORE PUSH1 0x20 ADD PUSH1 0x0 KECCAK256 DUP2 SWAP1 SSTORE POP PUSH1 0x6 PUSH1 0x0 CALLER PUSH20 0xFFFFFFFFFFFFFFFFFFFFFFFFFFFFFFFFFFFFFFFF AND PUSH20 0xFFFFFFFFFFFFFFFFFFFFFFFFFFFFFFFFFFFFFFFF AND DUP2 MSTORE PUSH1 0x20 ADD SWAP1 DUP2 MSTORE PUSH1 0x20 ADD PUSH1 0x0 KECCAK256 PUSH1 0x0 SWAP1 SLOAD SWAP1 PUSH2 0x100 EXP SWAP1 DIV PUSH1 0xFF AND PUSH2 0x715 JUMPI PUSH1 0x4 CALLER SWAP1 DUP1 PUSH1 0x1 DUP2 SLOAD ADD DUP1 DUP3 SSTORE DUP1 SWAP2 POP POP PUSH1 0x1 SWAP1 SUB SWAP1 PUSH1 0x0 MSTORE PUSH1 0x20 PUSH1 0x0 KECCAK256 ADD PUSH1 0x0 SWAP1 SWAP2 SWAP1 SWAP2 SWAP1 SWAP2 PUSH2 0x100 EXP DUP2 SLOAD DUP2 PUSH20 0xFFFFFFFFFFFFFFFFFFFFFFFFFFFFFFFFFFFFFFFF MUL NOT AND SWAP1 DUP4 PUSH20 0xFFFFFFFFFFFFFFFFFFFFFFFFFFFFFFFFFFFFFFFF AND MUL OR SWAP1 SSTORE POP JUMPDEST PUSH1 0x1 PUSH1 0x7 PUSH1 0x0 CALLER PUSH20 0xFFFFFFFFFFFFFFFFFFFFFFFFFFFFFFFFFFFFFFFF AND PUSH20 0xFFFFFFFFFFFFFFFFFFFFFFFFFFFFFFFFFFFFFFFF AND DUP2 MSTORE PUSH1 0x20 ADD SWAP1 DUP2 MSTORE PUSH1 0x20 ADD PUSH1 0x0 KECCAK256 PUSH1 0x0 PUSH2 0x100 EXP DUP2 SLOAD DUP2 PUSH1 0xFF MUL NOT AND SWAP1 DUP4 ISZERO ISZERO MUL OR SWAP1 SSTORE POP PUSH1 0x1 PUSH1 0x6 PUSH1 0x0 CALLER PUSH20 0xFFFFFFFFFFFFFFFFFFFFFFFFFFFFFFFFFFFFFFFF AND PUSH20 0xFFFFFFFFFFFFFFFFFFFFFFFFFFFFFFFFFFFFFFFF AND DUP2 MSTORE PUSH1 0x20 ADD SWAP1 DUP2 MSTORE PUSH1 0x20 ADD PUSH1 0x0 KECCAK256 PUSH1 0x0 PUSH2 0x100 EXP DUP2 SLOAD DUP2 PUSH1 0xFF MUL NOT AND SWAP1 DUP4 ISZERO ISZERO MUL OR SWAP1 SSTORE POP POP JUMP JUMPDEST PUSH1 0x1 PUSH1 0x0 SWAP1 SLOAD SWAP1 PUSH2 0x100 EXP SWAP1 DIV PUSH20 0xFFFFFFFFFFFFFFFFFFFFFFFFFFFFFFFFFFFFFFFF AND DUP2 JUMP JUMPDEST PUSH1 0x0 PUSH1 0x5 PUSH1 0x0 CALLER PUSH20 0xFFFFFFFFFFFFFFFFFFFFFFFFFFFFFFFFFFFFFFFF AND PUSH20 0xFFFFFFFFFFFFFFFFFFFFFFFFFFFFFFFFFFFFFFFF AND DUP2 MSTORE PUSH1 0x20 ADD SWAP1 DUP2 MSTORE PUSH1 0x20 ADD PUSH1 0x0 KECCAK256 SLOAD SWAP1 POP PUSH1 0x0 DUP2 GT PUSH2 0x875 JUMPI PUSH1 0x40 MLOAD PUSH32 0x8C379A000000000000000000000000000000000000000000000000000000000 DUP2 MSTORE PUSH1 0x4 ADD PUSH2 0x86C SWAP1 PUSH2 0x1064 JUMP JUMPDEST PUSH1 0x40 MLOAD DUP1 SWAP2 SUB SWAP1 REVERT JUMPDEST PUSH1 0x3 PUSH1 0x0 SWAP1 SLOAD SWAP1 PUSH2 0x100 EXP SWAP1 DIV PUSH20 0xFFFFFFFFFFFFFFFFFFFFFFFFFFFFFFFFFFFFFFFF AND PUSH20 0xFFFFFFFFFFFFFFFFFFFFFFFFFFFFFFFFFFFFFFFF AND PUSH4 0xA9059CBB CALLER DUP4 PUSH1 0x40 MLOAD DUP4 PUSH4 0xFFFFFFFF AND PUSH1 0xE0 SHL DUP2 MSTORE PUSH1 0x4 ADD PUSH2 0x8D2 SWAP3 SWAP2 SWAP1 PUSH2 0xE25 JUMP JUMPDEST PUSH1 0x20 PUSH1 0x40 MLOAD DUP1 DUP4 SUB DUP2 PUSH1 0x0 DUP8 GAS CALL ISZERO DUP1 ISZERO PUSH2 0x8F1 JUMPI RETURNDATASIZE PUSH1 0x0 DUP1 RETURNDATACOPY RETURNDATASIZE PUSH1 0x0 REVERT JUMPDEST POP POP POP POP PUSH1 0x40 MLOAD RETURNDATASIZE PUSH1 0x1F NOT PUSH1 0x1F DUP3 ADD AND DUP3 ADD DUP1 PUSH1 0x40 MSTORE POP DUP2 ADD SWAP1 PUSH2 0x915 SWAP2 SWAP1 PUSH2 0xE7A JUMP JUMPDEST POP PUSH1 0x0 PUSH1 0x5 PUSH1 0x0 CALLER PUSH20 0xFFFFFFFFFFFFFFFFFFFFFFFFFFFFFFFFFFFFFFFF AND PUSH20 0xFFFFFFFFFFFFFFFFFFFFFFFFFFFFFFFFFFFFFFFF AND DUP2 MSTORE PUSH1 0x20 ADD SWAP1 DUP2 MSTORE PUSH1 0x20 ADD PUSH1 0x0 KECCAK256 DUP2 SWAP1 SSTORE POP PUSH1 0x0 PUSH1 0x7 PUSH1 0x0 CALLER PUSH20 0xFFFFFFFFFFFFFFFFFFFFFFFFFFFFFFFFFFFFFFFF AND PUSH20 0xFFFFFFFFFFFFFFFFFFFFFFFFFFFFFFFFFFFFFFFF AND DUP2 MSTORE PUSH1 0x20 ADD SWAP1 DUP2 MSTORE PUSH1 0x20 ADD PUSH1 0x0 KECCAK256 PUSH1 0x0 PUSH2 0x100 EXP DUP2 SLOAD DUP2 PUSH1 0xFF MUL NOT AND SWAP1 DUP4 ISZERO ISZERO MUL OR SWAP1 SSTORE POP POP JUMP JUMPDEST PUSH1 0x6 PUSH1 0x20 MSTORE DUP1 PUSH1 0x0 MSTORE PUSH1 0x40 PUSH1 0x0 KECCAK256 PUSH1 0x0 SWAP2 POP SLOAD SWAP1 PUSH2 0x100 EXP SWAP1 DIV PUSH1 0xFF AND DUP2 JUMP JUMPDEST PUSH1 0x3 PUSH1 0x0 SWAP1 SLOAD SWAP1 PUSH2 0x100 EXP SWAP1 DIV PUSH20 0xFFFFFFFFFFFFFFFFFFFFFFFFFFFFFFFFFFFFFFFF AND DUP2 JUMP JUMPDEST PUSH1 0x4 DUP2 DUP2 SLOAD DUP2 LT PUSH2 0xA0C JUMPI PUSH1 0x0 DUP1 REVERT JUMPDEST SWAP1 PUSH1 0x0 MSTORE PUSH1 0x20 PUSH1 0x0 KECCAK256 ADD PUSH1 0x0 SWAP2 POP SLOAD SWAP1 PUSH2 0x100 EXP SWAP1 DIV PUSH20 0xFFFFFFFFFFFFFFFFFFFFFFFFFFFFFFFFFFFFFFFF AND DUP2 JUMP JUMPDEST PUSH1 0x0 DUP2 MLOAD SWAP1 POP SWAP2 SWAP1 POP JUMP JUMPDEST PUSH1 0x0 DUP3 DUP3 MSTORE PUSH1 0x20 DUP3 ADD SWAP1 POP SWAP3 SWAP2 POP POP JUMP JUMPDEST PUSH1 0x0 JUMPDEST DUP4 DUP2 LT ISZERO PUSH2 0xA75 JUMPI DUP1 DUP3 ADD MLOAD DUP2 DUP5 ADD MSTORE PUSH1 0x20 DUP2 ADD SWAP1 POP PUSH2 0xA5A JUMP JUMPDEST DUP4 DUP2 GT ISZERO PUSH2 0xA84 JUMPI PUSH1 0x0 DUP5 DUP5 ADD MSTORE JUMPDEST POP POP POP POP JUMP JUMPDEST PUSH1 0x0 PUSH1 0x1F NOT PUSH1 0x1F DUP4 ADD AND SWAP1 POP SWAP2 SWAP1 POP JUMP JUMPDEST PUSH1 0x0 PUSH2 0xAA6 DUP3 PUSH2 0xA3B JUMP JUMPDEST PUSH2 0xAB0 DUP2 DUP6 PUSH2 0xA46 JUMP JUMPDEST SWAP4 POP PUSH2 0xAC0 DUP2 DUP6 PUSH1 0x20 DUP7 ADD PUSH2 0xA57 JUMP JUMPDEST PUSH2 0xAC9 DUP2 PUSH2 0xA8A JUMP JUMPDEST DUP5 ADD SWAP2 POP POP SWAP3 SWAP2 POP POP JUMP JUMPDEST PUSH1 0x0 PUSH1 0x20 DUP3 ADD SWAP1 POP DUP2 DUP2 SUB PUSH1 0x0 DUP4 ADD MSTORE PUSH2 0xAEE DUP2 DUP5 PUSH2 0xA9B JUMP JUMPDEST SWAP1 POP SWAP3 SWAP2 POP POP JUMP JUMPDEST PUSH1 0x0 PUSH20 0xFFFFFFFFFFFFFFFFFFFFFFFFFFFFFFFFFFFFFFFF DUP3 AND SWAP1 POP SWAP2 SWAP1 POP JUMP JUMPDEST PUSH1 0x0 DUP2 SWAP1 POP SWAP2 SWAP1 POP JUMP JUMPDEST PUSH1 0x0 PUSH2 0xB3B PUSH2 0xB36 PUSH2 0xB31 DUP5 PUSH2 0xAF6 JUMP JUMPDEST PUSH2 0xB16 JUMP JUMPDEST PUSH2 0xAF6 JUMP JUMPDEST SWAP1 POP SWAP2 SWAP1 POP JUMP JUMPDEST PUSH1 0x0 PUSH2 0xB4D DUP3 PUSH2 0xB20 JUMP JUMPDEST SWAP1 POP SWAP2 SWAP1 POP JUMP JUMPDEST PUSH1 0x0 PUSH2 0xB5F DUP3 PUSH2 0xB42 JUMP JUMPDEST SWAP1 POP SWAP2 SWAP1 POP JUMP JUMPDEST PUSH2 0xB6F DUP2 PUSH2 0xB54 JUMP JUMPDEST DUP3 MSTORE POP POP JUMP JUMPDEST PUSH1 0x0 PUSH1 0x20 DUP3 ADD SWAP1 POP PUSH2 0xB8A PUSH1 0x0 DUP4 ADD DUP5 PUSH2 0xB66 JUMP JUMPDEST SWAP3 SWAP2 POP POP JUMP JUMPDEST PUSH1 0x0 DUP1 REVERT JUMPDEST PUSH1 0x0 PUSH2 0xBA0 DUP3 PUSH2 0xAF6 JUMP JUMPDEST SWAP1 POP SWAP2 SWAP1 POP JUMP JUMPDEST PUSH2 0xBB0 DUP2 PUSH2 0xB95 JUMP JUMPDEST DUP2 EQ PUSH2 0xBBB JUMPI PUSH1 0x0 DUP1 REVERT JUMPDEST POP JUMP JUMPDEST PUSH1 0x0 DUP2 CALLDATALOAD SWAP1 POP PUSH2 0xBCD DUP2 PUSH2 0xBA7 JUMP JUMPDEST SWAP3 SWAP2 POP POP JUMP JUMPDEST PUSH1 0x0 PUSH1 0x20 DUP3 DUP5 SUB SLT ISZERO PUSH2 0xBE9 JUMPI PUSH2 0xBE8 PUSH2 0xB90 JUMP JUMPDEST JUMPDEST PUSH1 0x0 PUSH2 0xBF7 DUP5 DUP3 DUP6 ADD PUSH2 0xBBE JUMP JUMPDEST SWAP2 POP POP SWAP3 SWAP2 POP POP JUMP JUMPDEST PUSH1 0x0 DUP2 SWAP1 POP SWAP2 SWAP1 POP JUMP JUMPDEST PUSH2 0xC13 DUP2 PUSH2 0xC00 JUMP JUMPDEST DUP3 MSTORE POP POP JUMP JUMPDEST PUSH1 0x0 PUSH1 0x20 DUP3 ADD SWAP1 POP PUSH2 0xC2E PUSH1 0x0 DUP4 ADD DUP5 PUSH2 0xC0A JUMP JUMPDEST SWAP3 SWAP2 POP POP JUMP JUMPDEST PUSH1 0x0 DUP2 ISZERO ISZERO SWAP1 POP SWAP2 SWAP1 POP JUMP JUMPDEST PUSH2 0xC49 DUP2 PUSH2 0xC34 JUMP JUMPDEST DUP3 MSTORE POP POP JUMP JUMPDEST PUSH1 0x0 PUSH1 0x20 DUP3 ADD SWAP1 POP PUSH2 0xC64 PUSH1 0x0 DUP4 ADD DUP5 PUSH2 0xC40 JUMP JUMPDEST SWAP3 SWAP2 POP POP JUMP JUMPDEST PUSH2 0xC73 DUP2 PUSH2 0xC00 JUMP JUMPDEST DUP2 EQ PUSH2 0xC7E JUMPI PUSH1 0x0 DUP1 REVERT JUMPDEST POP JUMP JUMPDEST PUSH1 0x0 DUP2 CALLDATALOAD SWAP1 POP PUSH2 0xC90 DUP2 PUSH2 0xC6A JUMP JUMPDEST SWAP3 SWAP2 POP POP JUMP JUMPDEST PUSH1 0x0 PUSH1 0x20 DUP3 DUP5 SUB SLT ISZERO PUSH2 0xCAC JUMPI PUSH2 0xCAB PUSH2 0xB90 JUMP JUMPDEST JUMPDEST PUSH1 0x0 PUSH2 0xCBA DUP5 DUP3 DUP6 ADD PUSH2 0xC81 JUMP JUMPDEST SWAP2 POP POP SWAP3 SWAP2 POP POP JUMP JUMPDEST PUSH2 0xCCC DUP2 PUSH2 0xB95 JUMP JUMPDEST DUP3 MSTORE POP POP JUMP JUMPDEST PUSH1 0x0 PUSH1 0x20 DUP3 ADD SWAP1 POP PUSH2 0xCE7 PUSH1 0x0 DUP4 ADD DUP5 PUSH2 0xCC3 JUMP JUMPDEST SWAP3 SWAP2 POP POP JUMP JUMPDEST PUSH1 0x0 PUSH2 0xCF8 DUP3 PUSH2 0xB42 JUMP JUMPDEST SWAP1 POP SWAP2 SWAP1 POP JUMP JUMPDEST PUSH2 0xD08 DUP2 PUSH2 0xCED JUMP JUMPDEST DUP3 MSTORE POP POP JUMP JUMPDEST PUSH1 0x0 PUSH1 0x20 DUP3 ADD SWAP1 POP PUSH2 0xD23 PUSH1 0x0 DUP4 ADD DUP5 PUSH2 0xCFF JUMP JUMPDEST SWAP3 SWAP2 POP POP JUMP JUMPDEST PUSH32 0x4E487B7100000000000000000000000000000000000000000000000000000000 PUSH1 0x0 MSTORE PUSH1 0x22 PUSH1 0x4 MSTORE PUSH1 0x24 PUSH1 0x0 REVERT JUMPDEST PUSH1 0x0 PUSH1 0x2 DUP3 DIV SWAP1 POP PUSH1 0x1 DUP3 AND DUP1 PUSH2 0xD70 JUMPI PUSH1 0x7F DUP3 AND SWAP2 POP JUMPDEST PUSH1 0x20 DUP3 LT DUP2 EQ ISZERO PUSH2 0xD84 JUMPI PUSH2 0xD83 PUSH2 0xD29 JUMP JUMPDEST JUMPDEST POP SWAP2 SWAP1 POP JUMP JUMPDEST PUSH32 0x63616C6C6572206D75737420626520746865206F776E65720000000000000000 PUSH1 0x0 DUP3 ADD MSTORE POP JUMP JUMPDEST PUSH1 0x0 PUSH2 0xDC0 PUSH1 0x18 DUP4 PUSH2 0xA46 JUMP JUMPDEST SWAP2 POP PUSH2 0xDCB DUP3 PUSH2 0xD8A JUMP JUMPDEST PUSH1 0x20 DUP3 ADD SWAP1 POP SWAP2 SWAP1 POP JUMP JUMPDEST PUSH1 0x0 PUSH1 0x20 DUP3 ADD SWAP1 POP DUP2 DUP2 SUB PUSH1 0x0 DUP4 ADD MSTORE PUSH2 0xDEF DUP2 PUSH2 0xDB3 JUMP JUMPDEST SWAP1 POP SWAP2 SWAP1 POP JUMP JUMPDEST PUSH32 0x4E487B7100000000000000000000000000000000000000000000000000000000 PUSH1 0x0 MSTORE PUSH1 0x32 PUSH1 0x4 MSTORE PUSH1 0x24 PUSH1 0x0 REVERT JUMPDEST PUSH1 0x0 PUSH1 0x40 DUP3 ADD SWAP1 POP PUSH2 0xE3A PUSH1 0x0 DUP4 ADD DUP6 PUSH2 0xCC3 JUMP JUMPDEST PUSH2 0xE47 PUSH1 0x20 DUP4 ADD DUP5 PUSH2 0xC0A JUMP JUMPDEST SWAP4 SWAP3 POP POP POP JUMP JUMPDEST PUSH2 0xE57 DUP2 PUSH2 0xC34 JUMP JUMPDEST DUP2 EQ PUSH2 0xE62 JUMPI PUSH1 0x0 DUP1 REVERT JUMPDEST POP JUMP JUMPDEST PUSH1 0x0 DUP2 MLOAD SWAP1 POP PUSH2 0xE74 DUP2 PUSH2 0xE4E JUMP JUMPDEST SWAP3 SWAP2 POP POP JUMP JUMPDEST PUSH1 0x0 PUSH1 0x20 DUP3 DUP5 SUB SLT ISZERO PUSH2 0xE90 JUMPI PUSH2 0xE8F PUSH2 0xB90 JUMP JUMPDEST JUMPDEST PUSH1 0x0 PUSH2 0xE9E DUP5 DUP3 DUP6 ADD PUSH2 0xE65 JUMP JUMPDEST SWAP2 POP POP SWAP3 SWAP2 POP POP JUMP JUMPDEST PUSH32 0x4E487B7100000000000000000000000000000000000000000000000000000000 PUSH1 0x0 MSTORE PUSH1 0x11 PUSH1 0x4 MSTORE PUSH1 0x24 PUSH1 0x0 REVERT JUMPDEST PUSH1 0x0 PUSH2 0xEE1 DUP3 PUSH2 0xC00 JUMP JUMPDEST SWAP2 POP PUSH32 0xFFFFFFFFFFFFFFFFFFFFFFFFFFFFFFFFFFFFFFFFFFFFFFFFFFFFFFFFFFFFFFFF DUP3 EQ ISZERO PUSH2 0xF14 JUMPI PUSH2 0xF13 PUSH2 0xEA7 JUMP JUMPDEST JUMPDEST PUSH1 0x1 DUP3 ADD SWAP1 POP SWAP2 SWAP1 POP JUMP JUMPDEST PUSH32 0x616D6F756E742063616E6E6F7420626520300000000000000000000000000000 PUSH1 0x0 DUP3 ADD MSTORE POP JUMP JUMPDEST PUSH1 0x0 PUSH2 0xF55 PUSH1 0x12 DUP4 PUSH2 0xA46 JUMP JUMPDEST SWAP2 POP PUSH2 0xF60 DUP3 PUSH2 0xF1F JUMP JUMPDEST PUSH1 0x20 DUP3 ADD SWAP1 POP SWAP2 SWAP1 POP JUMP JUMPDEST PUSH1 0x0 PUSH1 0x20 DUP3 ADD SWAP1 POP DUP2 DUP2 SUB PUSH1 0x0 DUP4 ADD MSTORE PUSH2 0xF84 DUP2 PUSH2 0xF48 JUMP JUMPDEST SWAP1 POP SWAP2 SWAP1 POP JUMP JUMPDEST PUSH1 0x0 PUSH1 0x60 DUP3 ADD SWAP1 POP PUSH2 0xFA0 PUSH1 0x0 DUP4 ADD DUP7 PUSH2 0xCC3 JUMP JUMPDEST PUSH2 0xFAD PUSH1 0x20 DUP4 ADD DUP6 PUSH2 0xCC3 JUMP JUMPDEST PUSH2 0xFBA PUSH1 0x40 DUP4 ADD DUP5 PUSH2 0xC0A JUMP JUMPDEST SWAP5 SWAP4 POP POP POP POP JUMP JUMPDEST PUSH1 0x0 PUSH2 0xFCD DUP3 PUSH2 0xC00 JUMP JUMPDEST SWAP2 POP PUSH2 0xFD8 DUP4 PUSH2 0xC00 JUMP JUMPDEST SWAP3 POP DUP3 PUSH32 0xFFFFFFFFFFFFFFFFFFFFFFFFFFFFFFFFFFFFFFFFFFFFFFFFFFFFFFFFFFFFFFFF SUB DUP3 GT ISZERO PUSH2 0x100D JUMPI PUSH2 0x100C PUSH2 0xEA7 JUMP JUMPDEST JUMPDEST DUP3 DUP3 ADD SWAP1 POP SWAP3 SWAP2 POP POP JUMP JUMPDEST PUSH32 0x7374616B696E672062616C616E63652063616E6E6F7420626520300000000000 PUSH1 0x0 DUP3 ADD MSTORE POP JUMP JUMPDEST PUSH1 0x0 PUSH2 0x104E PUSH1 0x1B DUP4 PUSH2 0xA46 JUMP JUMPDEST SWAP2 POP PUSH2 0x1059 DUP3 PUSH2 0x1018 JUMP JUMPDEST PUSH1 0x20 DUP3 ADD SWAP1 POP SWAP2 SWAP1 POP JUMP JUMPDEST PUSH1 0x0 PUSH1 0x20 DUP3 ADD SWAP1 POP DUP2 DUP2 SUB PUSH1 0x0 DUP4 ADD MSTORE PUSH2 0x107D DUP2 PUSH2 0x1041 JUMP JUMPDEST SWAP1 POP SWAP2 SWAP1 POP JUMP INVALID LOG2 PUSH5 0x6970667358 0x22 SLT KECCAK256 0xA7 0xDF 0xE6 BYTE DUP16 0xF6 SLOAD NOT 0xEC LOG4 SWAP4 DUP2 0xBB CREATE2 SWAP15 0x5F 0x26 0x24 0xDA 0xA5 RETURNDATASIZE MSTORE 0xF ADDRESS LOG0 0x4F 0xB9 PUSH17 0x4C6CD9AA64736F6C634300080C00330000 "
				},
				"gasEstimates": {
					"creation": {
						"codeDepositCost": "856400",
						"executionCost": "infinite",
						"totalCost": "infinite"
					},
					"external": {
						"hasStaked(address)": "2911",
						"isStaking(address)": "2934",
						"issueTokens()": "infinite",
						"name()": "infinite",
						"owner()": "2536",
						"raghavendraToken()": "infinite",
						"rewardToken()": "infinite",
						"stakeTokens(uint256)": "infinite",
						"stakers(uint256)": "5066",
						"stakingBalance(address)": "2859",
						"unstakeTokens()": "infinite"
					}
				},
				"methodIdentifiers": {
					"hasStaked(address)": "c93c8f34",
					"isStaking(address)": "6f49712b",
					"issueTokens()": "60ab5852",
					"name()": "06fdde03",
					"owner()": "8da5cb5b",
					"raghavendraToken()": "1ea3626a",
					"rewardToken()": "f7c618c1",
					"stakeTokens(uint256)": "7547c7a3",
					"stakers(uint256)": "fd5e6dd1",
					"stakingBalance(address)": "45bc78ab",
					"unstakeTokens()": "a5ce413b"
				}
			},
			"userdoc": {
				"kind": "user",
				"methods": {},
				"version": 1
			}
		}
	}
}